{
  "_format": "hh-sol-artifact-1",
  "contractName": "Signature",
  "sourceName": "contracts/Signature.sol",
  "abi": [
    {
      "inputs": [
        {
          "internalType": "uint256",
          "name": "chain",
          "type": "uint256"
        }
      ],
      "stateMutability": "nonpayable",
      "type": "constructor"
    },
    {
      "inputs": [
        {
          "components": [
            {
              "internalType": "uint256",
              "name": "tokenId",
              "type": "uint256"
            },
            {
              "internalType": "address",
              "name": "creator",
              "type": "address"
            },
            {
              "internalType": "uint256",
              "name": "supply",
              "type": "uint256"
            },
            {
              "internalType": "uint256",
              "name": "price",
              "type": "uint256"
            },
            {
              "internalType": "address",
              "name": "bidder",
              "type": "address"
            },
            {
              "internalType": "uint256",
              "name": "amount",
              "type": "uint256"
            },
            {
              "internalType": "uint256",
              "name": "value",
              "type": "uint256"
            },
            {
              "internalType": "bytes",
              "name": "signature",
              "type": "bytes"
            }
          ],
          "internalType": "struct Signature.Bid",
          "name": "bid",
          "type": "tuple"
        }
      ],
      "name": "verifyBid",
      "outputs": [
        {
          "internalType": "address",
          "name": "",
          "type": "address"
        }
      ],
      "stateMutability": "view",
      "type": "function"
    }
  ],
  "bytecode": "0x61012060405234801561001157600080fd5b5060405161091c38038061091c833981016040819052610030916101d5565b604080518082018252601081526f5361637265642d5369676e617475726560801b6020808301918252835180850190945260018452603160f81b908401528151902060c08190527fc89efdaa54c0f20c7adf612882df0950f5a951637e0307cdcb4c672f298b8bc660e08190524660a0529192916000805160206108fc8339815191526100be818484610137565b6080908152610100919091526040805160c08101825260109281019283526f5361637265642d5369676e617475726560801b60a08201529182528051808201825260018152603160f81b602082810191909152830152810186905230606082015261012e94509250506101719050565b60005550610219565b600083838346306040516020016101529594939291906101ed565b6040516020818303038152906040528051906020012090509392505050565b60006000805160206108fc833981519152826000015180519060200120836020015180519060200120846040015185606001516040516020016101b89594939291906101ed565b604051602081830303815290604052805190602001209050919050565b6000602082840312156101e6578081fd5b5051919050565b9485526020850193909352604084019190915260608301526001600160a01b0316608082015260a00190565b60805160a05160c05160e051610100516106ae61024e60003960005050600050506000505060005050600050506106ae6000f3fe608060405234801561001057600080fd5b506004361061002b5760003560e01c806305ac10df14610030575b600080fd5b61004361003e366004610477565b610059565b60405161005091906104cb565b60405180910390f35b600080600054610068846100e7565b6040516020016100799291906104b0565b60408051601f19818403018152919052805160209091012090506100e06100a360e0850185610633565b8080601f01602080910402602001604051908101604052809392919081815260200183838082843760009201919091525085939250506101749050565b9392505050565b60007f930857f54aad7e3f25dbf0ecc68c4fe089f055aa356a5dcff709b14935354a26823561011c6040850160208601610450565b6040850135606086013561013660a0880160808901610450565b8760a001358860c001356040516020016101579897969594939291906104df565b604051602081830303815290604052805190602001209050919050565b60008060006101838585610198565b9150915061019081610208565b509392505050565b6000808251604114156101cf5760208301516040840151606085015160001a6101c387828585610341565b94509450505050610201565b8251604014156101f957602083015160408401516101ee868383610421565b935093505050610201565b506000905060025b9250929050565b600081600481111561022a57634e487b7160e01b600052602160045260246000fd5b14156102355761033e565b600181600481111561025757634e487b7160e01b600052602160045260246000fd5b141561027e5760405162461bcd60e51b815260040161027590610541565b60405180910390fd5b60028160048111156102a057634e487b7160e01b600052602160045260246000fd5b14156102be5760405162461bcd60e51b815260040161027590610578565b60038160048111156102e057634e487b7160e01b600052602160045260246000fd5b14156102fe5760405162461bcd60e51b8152600401610275906105af565b600481600481111561032057634e487b7160e01b600052602160045260246000fd5b141561033e5760405162461bcd60e51b8152600401610275906105f1565b50565b6000807f7fffffffffffffffffffffffffffffff5d576e7357a4501ddfe92f46681b20a08311156103785750600090506003610418565b8460ff16601b1415801561039057508460ff16601c14155b156103a15750600090506004610418565b6000600187878787604051600081526020016040526040516103c69493929190610523565b6020604051602081039080840390855afa1580156103e8573d6000803e3d6000fd5b5050604051601f1901519150506001600160a01b03811661041157600060019250925050610418565b9150600090505b94509492505050565b6000806001600160ff1b03831660ff84901c601b0161044287828885610341565b935093505050935093915050565b600060208284031215610461578081fd5b81356001600160a01b03811681146100e0578182fd5b600060208284031215610488578081fd5b813567ffffffffffffffff81111561049e578182fd5b820161010081850312156100e0578182fd5b61190160f01b81526002810192909252602282015260420190565b6001600160a01b0391909116815260200190565b97885260208801969096526001600160a01b0394851660408801526060870193909352608086019190915290911660a084015260c083015260e08201526101000190565b93845260ff9290921660208401526040830152606082015260800190565b60208082526018908201527f45434453413a20696e76616c6964207369676e61747572650000000000000000604082015260600190565b6020808252601f908201527f45434453413a20696e76616c6964207369676e6174757265206c656e67746800604082015260600190565b60208082526022908201527f45434453413a20696e76616c6964207369676e6174757265202773272076616c604082015261756560f01b606082015260800190565b60208082526022908201527f45434453413a20696e76616c6964207369676e6174757265202776272076616c604082015261756560f01b606082015260800190565b6000808335601e19843603018112610649578283fd5b83018035915067ffffffffffffffff821115610663578283fd5b60200191503681900382131561020157600080fdfea2646970667358221220c224362adf305a28771d2c33365ecf023d1acd6001e5e6ebec4188b4d273e97f64736f6c634300080000338b73c3c69bb8fe3d512ecc4cf759cc79239f7b179b0ffacaa9a75d522b39400f",
  "linkReferences": {},
  "deployedLinkReferences": {}
}