{
  "_format": "hh-sol-artifact-1",
  "contractName": "Signature",
  "sourceName": "contracts/Signature.sol",
  "abi": [
    {
      "inputs": [
        {
          "internalType": "uint256",
          "name": "chain",
          "type": "uint256"
        }
      ],
      "stateMutability": "nonpayable",
      "type": "constructor"
    },
    {
      "inputs": [
        {
          "components": [
            {
              "internalType": "uint256",
              "name": "tokenId",
              "type": "uint256"
            },
            {
              "internalType": "address",
              "name": "creator",
              "type": "address"
            },
            {
              "internalType": "uint256",
              "name": "supply",
              "type": "uint256"
            },
            {
              "internalType": "uint256",
              "name": "price",
              "type": "uint256"
            },
            {
              "internalType": "address",
              "name": "bidder",
              "type": "address"
            },
            {
              "internalType": "uint256",
              "name": "amount",
              "type": "uint256"
            },
            {
              "internalType": "uint256",
              "name": "value",
              "type": "uint256"
            }
          ],
          "internalType": "struct Signature.Bid",
          "name": "bid",
          "type": "tuple"
        },
        {
          "internalType": "uint8",
          "name": "v",
          "type": "uint8"
        },
        {
          "internalType": "bytes32",
          "name": "r",
          "type": "bytes32"
        },
        {
          "internalType": "bytes32",
          "name": "s",
          "type": "bytes32"
        }
      ],
      "name": "verifyBid",
      "outputs": [
        {
          "internalType": "bool",
          "name": "",
          "type": "bool"
        }
      ],
      "stateMutability": "view",
      "type": "function"
    }
  ],
  "bytecode": "0x61012060405234801561001157600080fd5b506040516105b53803806105b5833981016040819052610030916101d5565b604080518082018252601081526f5361637265642d5369676e617475726560801b6020808301918252835180850190945260018452603160f81b908401528151902060c08190527fc89efdaa54c0f20c7adf612882df0950f5a951637e0307cdcb4c672f298b8bc660e08190524660a0529192916000805160206105958339815191526100be818484610137565b6080908152610100919091526040805160c08101825260109281019283526f5361637265642d5369676e617475726560801b60a08201529182528051808201825260018152603160f81b602082810191909152830152810186905230606082015261012e94509250506101719050565b60005550610219565b600083838346306040516020016101529594939291906101ed565b6040516020818303038152906040528051906020012090509392505050565b6000600080516020610595833981519152826000015180519060200120836020015180519060200120846040015185606001516040516020016101b89594939291906101ed565b604051602081830303815290604052805190602001209050919050565b6000602082840312156101e6578081fd5b5051919050565b9485526020850193909352604084019190915260608301526001600160a01b0316608082015260a00190565b60805160a05160c05160e0516101005161034761024e60003960005050600050506000505060005050600050506103476000f3fe608060405234801561001057600080fd5b506004361061002b5760003560e01c8063446e8df214610030575b600080fd5b61004361003e366004610237565b610059565b60405161005091906102a4565b60405180910390f35b6000806000546100688761017c565b604051602001610079929190610289565b60408051601f19818403018152919052805160209091012090506100a360a0870160808801610209565b6001600160a01b0316600182878787604051600081526020016040526040516100cf94939291906102f3565b6020604051602081039080840390855afa1580156100f1573d6000803e3d6000fd5b505050602060405103516001600160a01b0316148015610172575060006001600160a01b03166001828787876040516000815260200160405260405161013a94939291906102f3565b6020604051602081039080840390855afa15801561015c573d6000803e3d6000fd5b505050602060405103516001600160a01b031614155b9695505050505050565b60007f930857f54aad7e3f25dbf0ecc68c4fe089f055aa356a5dcff709b14935354a2682356101b16040850160208601610209565b604085013560608601356101cb60a0880160808901610209565b8760a001358860c001356040516020016101ec9897969594939291906102af565b604051602081830303815290604052805190602001209050919050565b60006020828403121561021a578081fd5b81356001600160a01b0381168114610230578182fd5b9392505050565b60008060008084860361014081121561024e578384fd5b60e081121561025b578384fd5b5084935060e085013560ff81168114610272578384fd5b939693955050505061010082013591610120013590565b61190160f01b81526002810192909252602282015260420190565b901515815260200190565b97885260208801969096526001600160a01b0394851660408801526060870193909352608086019190915290911660a084015260c083015260e08201526101000190565b93845260ff929092166020840152604083015260608201526080019056fea2646970667358221220be2a3ca4b66dd40cf113680bf326f3174598ffdd3b3474fe4a86115354b34fd364736f6c634300080000338b73c3c69bb8fe3d512ecc4cf759cc79239f7b179b0ffacaa9a75d522b39400f",
  "linkReferences": {},
  "deployedLinkReferences": {}
}