{
  "_format": "hh-sol-artifact-1",
  "contractName": "Signature",
  "sourceName": "contracts/Signature.sol",
  "abi": [
    {
      "inputs": [],
      "stateMutability": "nonpayable",
      "type": "constructor"
    },
    {
      "inputs": [
        {
          "components": [
            {
              "components": [
                {
                  "internalType": "uint256",
                  "name": "tokenId",
                  "type": "uint256"
                },
                {
                  "internalType": "address",
                  "name": "creator",
                  "type": "address"
                },
                {
                  "internalType": "uint256",
                  "name": "supply",
                  "type": "uint256"
                },
                {
                  "internalType": "uint256",
                  "name": "price",
                  "type": "uint256"
                },
                {
                  "internalType": "bytes",
                  "name": "signature",
                  "type": "bytes"
                }
              ],
              "internalType": "struct Signature.Voucher",
              "name": "voucher",
              "type": "tuple"
            },
            {
              "internalType": "address",
              "name": "bidder",
              "type": "address"
            },
            {
              "internalType": "uint256",
              "name": "amount",
              "type": "uint256"
            },
            {
              "internalType": "uint256",
              "name": "value",
              "type": "uint256"
            },
            {
              "internalType": "bytes",
              "name": "signature",
              "type": "bytes"
            }
          ],
          "internalType": "struct Signature.Bid",
          "name": "bid",
          "type": "tuple"
        }
      ],
      "name": "verifyBid",
      "outputs": [
        {
          "internalType": "address",
          "name": "",
          "type": "address"
        }
      ],
      "stateMutability": "view",
      "type": "function"
    },
    {
      "inputs": [
        {
          "components": [
            {
              "internalType": "uint256",
              "name": "tokenId",
              "type": "uint256"
            },
            {
              "internalType": "address",
              "name": "creator",
              "type": "address"
            },
            {
              "internalType": "uint256",
              "name": "supply",
              "type": "uint256"
            },
            {
              "internalType": "uint256",
              "name": "price",
              "type": "uint256"
            },
            {
              "internalType": "bytes",
              "name": "signature",
              "type": "bytes"
            }
          ],
          "internalType": "struct Signature.Voucher",
          "name": "voucher",
          "type": "tuple"
        }
      ],
      "name": "verifyVoucher",
      "outputs": [
        {
          "internalType": "address",
          "name": "",
          "type": "address"
        }
      ],
      "stateMutability": "view",
      "type": "function"
    }
  ],
  "bytecode": "0x6101206040523480156200001257600080fd5b506040518060400160405280601081526020017f5361637265642d5369676e6174757265000000000000000000000000000000008152506040518060400160405280600181526020017f310000000000000000000000000000000000000000000000000000000000000081525060008280519060200120905060008280519060200120905060007f8b73c3c69bb8fe3d512ecc4cf759cc79239f7b179b0ffacaa9a75d522b39400f90508260c081815250508160e081815250504660a08181525050620000e7818484620001ba60201b60201c565b608081815250508061010081815250505050505050620001ae60405180608001604052806040518060400160405280601081526020017f5361637265642d5369676e61747572650000000000000000000000000000000081525081526020016040518060400160405280600181526020017f31000000000000000000000000000000000000000000000000000000000000008152508152602001600481526020013073ffffffffffffffffffffffffffffffffffffffff16815250620001f660201b60201c565b60008190555062000346565b60008383834630604051602001620001d7959493929190620002a1565b6040516020818303038152906040528051906020012090509392505050565b60007f8b73c3c69bb8fe3d512ecc4cf759cc79239f7b179b0ffacaa9a75d522b39400f8260000151805190602001208360200151805190602001208460400151856060015160405160200162000251959493929190620002a1565b604051602081830303815290604052805190602001209050919050565b6200027981620002fe565b82525050565b6200028a8162000312565b82525050565b6200029b816200033c565b82525050565b600060a082019050620002b860008301886200027f565b620002c760208301876200027f565b620002d660408301866200027f565b620002e5606083018562000290565b620002f460808301846200026e565b9695505050505050565b60006200030b826200031c565b9050919050565b6000819050919050565b600073ffffffffffffffffffffffffffffffffffffffff82169050919050565b6000819050919050565b60805160a05160c05160e05161010051610efd6200037c6000396000505060005050600050506000505060005050610efd6000f3fe608060405234801561001057600080fd5b50600436106100365760003560e01c80635f4bdac21461003b578063c7003ba91461006b575b600080fd5b6100556004803603810190610050919061095e565b61009b565b6040516100629190610ad8565b60405180910390f35b6100856004803603810190610080919061091d565b610140565b6040516100929190610ad8565b60405180910390f35b6000806000546100aa846101e5565b6040516020016100bb929190610aa1565b6040516020818303038152906040528051906020012090506101388380608001906100e69190610ca3565b8080601f016020809104026020016040519081016040528093929190818152602001838380828437600081840152601f19601f820116905080830192505050505050508261025b90919063ffffffff16565b915050919050565b60008060005461014f84610282565b604051602001610160929190610aa1565b6040516020818303038152906040528051906020012090506101dd83806080019061018b9190610ca3565b8080601f016020809104026020016040519081016040528093929190818152602001838380828437600081840152601f19601f820116905080830192505050505050508261025b90919063ffffffff16565b915050919050565b60007fbe498b60017380f143c4d8c526896d98ce4985157a73174197d0e3aa6391ec1a826000013583602001602081019061022091906108f4565b8460400135856060013560405160200161023e959493929190610b46565b604051602081830303815290604052805190602001209050919050565b600080600061026a858561037a565b91509150610277816103fd565b819250505092915050565b60007f5b696329fa545293ecd9b7552b88cab78d6ce20cb69d3de8c3e730ecbc1c18508280600001906102b59190610cfa565b600001358380600001906102c99190610cfa565b60200160208101906102db91906108f4565b8480600001906102eb9190610cfa565b604001358580600001906102ff9190610cfa565b606001356040516020016103169493929190610c5e565b6040516020818303038152906040528051906020012083602001602081019061033f91906108f4565b8460400135856060013560405160200161035d959493929190610af3565b604051602081830303815290604052805190602001209050919050565b6000806041835114156103bc5760008060006020860151925060408601519150606086015160001a90506103b08782858561074e565b945094505050506103f6565b6040835114156103ed5760008060208501519150604085015190506103e286838361085b565b9350935050506103f6565b60006002915091505b9250929050565b60006004811115610437577f4e487b7100000000000000000000000000000000000000000000000000000000600052602160045260246000fd5b816004811115610470577f4e487b7100000000000000000000000000000000000000000000000000000000600052602160045260246000fd5b141561047b5761074b565b600160048111156104b5577f4e487b7100000000000000000000000000000000000000000000000000000000600052602160045260246000fd5b8160048111156104ee577f4e487b7100000000000000000000000000000000000000000000000000000000600052602160045260246000fd5b141561052f576040517f08c379a000000000000000000000000000000000000000000000000000000000815260040161052690610bde565b60405180910390fd5b60026004811115610569577f4e487b7100000000000000000000000000000000000000000000000000000000600052602160045260246000fd5b8160048111156105a2577f4e487b7100000000000000000000000000000000000000000000000000000000600052602160045260246000fd5b14156105e3576040517f08c379a00000000000000000000000000000000000000000000000000000000081526004016105da90610bfe565b60405180910390fd5b6003600481111561061d577f4e487b7100000000000000000000000000000000000000000000000000000000600052602160045260246000fd5b816004811115610656577f4e487b7100000000000000000000000000000000000000000000000000000000600052602160045260246000fd5b1415610697576040517f08c379a000000000000000000000000000000000000000000000000000000000815260040161068e90610c1e565b60405180910390fd5b6004808111156106d0577f4e487b7100000000000000000000000000000000000000000000000000000000600052602160045260246000fd5b816004811115610709577f4e487b7100000000000000000000000000000000000000000000000000000000600052602160045260246000fd5b141561074a576040517f08c379a000000000000000000000000000000000000000000000000000000000815260040161074190610c3e565b60405180910390fd5b5b50565b6000807f7fffffffffffffffffffffffffffffff5d576e7357a4501ddfe92f46681b20a08360001c1115610789576000600391509150610852565b601b8560ff16141580156107a15750601c8560ff1614155b156107b3576000600491509150610852565b6000600187878787604051600081526020016040526040516107d89493929190610b99565b6020604051602081039080840390855afa1580156107fa573d6000803e3d6000fd5b505050602060405103519050600073ffffffffffffffffffffffffffffffffffffffff168173ffffffffffffffffffffffffffffffffffffffff16141561084957600060019250925050610852565b80600092509250505b94509492505050565b6000806000807f7fffffffffffffffffffffffffffffffffffffffffffffffffffffffffffffff85169150601b8560ff1c01905061089b8782888561074e565b935093505050935093915050565b6000813590506108b881610eb0565b92915050565b600060a082840312156108d057600080fd5b81905092915050565b600060a082840312156108eb57600080fd5b81905092915050565b60006020828403121561090657600080fd5b6000610914848285016108a9565b91505092915050565b60006020828403121561092f57600080fd5b600082013567ffffffffffffffff81111561094957600080fd5b610955848285016108be565b91505092915050565b60006020828403121561097057600080fd5b600082013567ffffffffffffffff81111561098a57600080fd5b610996848285016108d9565b91505092915050565b6109a881610d3a565b82525050565b6109b781610d4c565b82525050565b6109ce6109c982610d4c565b610d8d565b82525050565b60006109e1601883610d1e565b91506109ec82610d97565b602082019050919050565b6000610a04601f83610d1e565b9150610a0f82610dc0565b602082019050919050565b6000610a27600283610d2f565b9150610a3282610de9565b600282019050919050565b6000610a4a602283610d1e565b9150610a5582610e12565b604082019050919050565b6000610a6d602283610d1e565b9150610a7882610e61565b604082019050919050565b610a8c81610d76565b82525050565b610a9b81610d80565b82525050565b6000610aac82610a1a565b9150610ab882856109bd565b602082019150610ac882846109bd565b6020820191508190509392505050565b6000602082019050610aed600083018461099f565b92915050565b600060a082019050610b0860008301886109ae565b610b1560208301876109ae565b610b22604083018661099f565b610b2f6060830185610a83565b610b3c6080830184610a83565b9695505050505050565b600060a082019050610b5b60008301886109ae565b610b686020830187610a83565b610b75604083018661099f565b610b826060830185610a83565b610b8f6080830184610a83565b9695505050505050565b6000608082019050610bae60008301876109ae565b610bbb6020830186610a92565b610bc860408301856109ae565b610bd560608301846109ae565b95945050505050565b60006020820190508181036000830152610bf7816109d4565b9050919050565b60006020820190508181036000830152610c17816109f7565b9050919050565b60006020820190508181036000830152610c3781610a3d565b9050919050565b60006020820190508181036000830152610c5781610a60565b9050919050565b6000608082019050610c736000830187610a83565b610c80602083018661099f565b610c8d6040830185610a83565b610c9a6060830184610a83565b95945050505050565b60008083356001602003843603038112610cbc57600080fd5b80840192508235915067ffffffffffffffff821115610cda57600080fd5b602083019250600182023603831315610cf257600080fd5b509250929050565b60008235600160a003833603038112610d1257600080fd5b80830191505092915050565b600082825260208201905092915050565b600081905092915050565b6000610d4582610d56565b9050919050565b6000819050919050565b600073ffffffffffffffffffffffffffffffffffffffff82169050919050565b6000819050919050565b600060ff82169050919050565b6000819050919050565b7f45434453413a20696e76616c6964207369676e61747572650000000000000000600082015250565b7f45434453413a20696e76616c6964207369676e6174757265206c656e67746800600082015250565b7f1901000000000000000000000000000000000000000000000000000000000000600082015250565b7f45434453413a20696e76616c6964207369676e6174757265202773272076616c60008201527f7565000000000000000000000000000000000000000000000000000000000000602082015250565b7f45434453413a20696e76616c6964207369676e6174757265202776272076616c60008201527f7565000000000000000000000000000000000000000000000000000000000000602082015250565b610eb981610d3a565b8114610ec457600080fd5b5056fea2646970667358221220b0c54efecda5f6e8b8838cc8c9691a6e2968bd74733d916058f4c01c16bc4e3064736f6c63430008040033",
  "linkReferences": {},
  "deployedLinkReferences": {}
}