{
  "_format": "hh-sol-artifact-1",
  "contractName": "Auction",
  "sourceName": "contracts/Auction.sol",
  "abi": [
    {
      "inputs": [
        {
          "internalType": "address",
          "name": "wTokenAddress",
          "type": "address"
        },
        {
          "internalType": "address",
          "name": "placeAddress",
          "type": "address"
        },
        {
          "internalType": "address",
          "name": "signatureAddress",
          "type": "address"
        },
        {
          "internalType": "address",
          "name": "owner",
          "type": "address"
        }
      ],
      "stateMutability": "nonpayable",
      "type": "constructor"
    },
    {
      "anonymous": false,
      "inputs": [
        {
          "indexed": true,
          "internalType": "address",
          "name": "sender",
          "type": "address"
        },
        {
          "indexed": false,
          "internalType": "uint256",
          "name": "tokenId",
          "type": "uint256"
        }
      ],
      "name": "BidAccepted",
      "type": "event"
    },
    {
      "anonymous": false,
      "inputs": [
        {
          "indexed": true,
          "internalType": "address",
          "name": "sender",
          "type": "address"
        },
        {
          "indexed": false,
          "internalType": "uint256",
          "name": "tokenId",
          "type": "uint256"
        }
      ],
      "name": "BidDeclined",
      "type": "event"
    },
    {
      "anonymous": false,
      "inputs": [
        {
          "indexed": true,
          "internalType": "address",
          "name": "previousOwner",
          "type": "address"
        },
        {
          "indexed": true,
          "internalType": "address",
          "name": "newOwner",
          "type": "address"
        }
      ],
      "name": "OwnershipTransferred",
      "type": "event"
    },
    {
      "inputs": [
        {
          "components": [
            {
              "internalType": "uint256",
              "name": "tokenId",
              "type": "uint256"
            },
            {
              "internalType": "address",
              "name": "creator",
              "type": "address"
            },
            {
              "internalType": "uint256",
              "name": "supply",
              "type": "uint256"
            },
            {
              "internalType": "uint256",
              "name": "price",
              "type": "uint256"
            },
            {
              "internalType": "address",
              "name": "bidder",
              "type": "address"
            },
            {
              "internalType": "uint256",
              "name": "amount",
              "type": "uint256"
            },
            {
              "internalType": "uint256",
              "name": "value",
              "type": "uint256"
            }
          ],
          "internalType": "struct Signature.Bid",
          "name": "bid",
          "type": "tuple"
        },
        {
          "internalType": "uint8",
          "name": "v",
          "type": "uint8"
        },
        {
          "internalType": "bytes32",
          "name": "r",
          "type": "bytes32"
        },
        {
          "internalType": "bytes32",
          "name": "s",
          "type": "bytes32"
        }
      ],
      "name": "acceptBid",
      "outputs": [],
      "stateMutability": "nonpayable",
      "type": "function"
    },
    {
      "inputs": [
        {
          "components": [
            {
              "internalType": "uint256",
              "name": "tokenId",
              "type": "uint256"
            },
            {
              "internalType": "address",
              "name": "creator",
              "type": "address"
            },
            {
              "internalType": "uint256",
              "name": "supply",
              "type": "uint256"
            },
            {
              "internalType": "uint256",
              "name": "price",
              "type": "uint256"
            },
            {
              "internalType": "address",
              "name": "bidder",
              "type": "address"
            },
            {
              "internalType": "uint256",
              "name": "amount",
              "type": "uint256"
            },
            {
              "internalType": "uint256",
              "name": "value",
              "type": "uint256"
            }
          ],
          "internalType": "struct Signature.Bid",
          "name": "bid",
          "type": "tuple"
        },
        {
          "internalType": "uint8",
          "name": "v",
          "type": "uint8"
        },
        {
          "internalType": "bytes32",
          "name": "r",
          "type": "bytes32"
        },
        {
          "internalType": "bytes32",
          "name": "s",
          "type": "bytes32"
        }
      ],
      "name": "declineBid",
      "outputs": [],
      "stateMutability": "nonpayable",
      "type": "function"
    },
    {
      "inputs": [],
      "name": "owner",
      "outputs": [
        {
          "internalType": "address",
          "name": "",
          "type": "address"
        }
      ],
      "stateMutability": "view",
      "type": "function"
    },
    {
      "inputs": [],
      "name": "place",
      "outputs": [
        {
          "internalType": "contract Place",
          "name": "",
          "type": "address"
        }
      ],
      "stateMutability": "view",
      "type": "function"
    },
    {
      "inputs": [],
      "name": "renounceOwnership",
      "outputs": [],
      "stateMutability": "nonpayable",
      "type": "function"
    },
    {
      "inputs": [],
      "name": "signature",
      "outputs": [
        {
          "internalType": "contract Signature",
          "name": "",
          "type": "address"
        }
      ],
      "stateMutability": "view",
      "type": "function"
    },
    {
      "inputs": [
        {
          "internalType": "address",
          "name": "newOwner",
          "type": "address"
        }
      ],
      "name": "transferOwnership",
      "outputs": [],
      "stateMutability": "nonpayable",
      "type": "function"
    },
    {
      "inputs": [],
      "name": "wToken",
      "outputs": [
        {
          "internalType": "contract WToken",
          "name": "",
          "type": "address"
        }
      ],
      "stateMutability": "view",
      "type": "function"
    }
  ],
  "bytecode": "0x60806040523480156200001157600080fd5b5060405162000d5438038062000d548339810160408190526200003491620001a0565b62000048620000426200009a565b6200009e565b600180546001600160a01b038087166001600160a01b0319928316179092556002805486841690831617905560038054928516929091169190911790556200009081620000ee565b5050505062000277565b3390565b600080546001600160a01b038381166001600160a01b0319831681178455604051919092169283917f8be0079c531659141344cd1fd0a4f28419497f9722a3daafe3b4186f6b6457e09190a35050565b620000f86200009a565b6001600160a01b03166200010b62000174565b6001600160a01b0316146200013d5760405162461bcd60e51b8152600401620001349062000242565b60405180910390fd5b6001600160a01b038116620001665760405162461bcd60e51b81526004016200013490620001fc565b62000171816200009e565b50565b6000546001600160a01b031690565b80516001600160a01b03811681146200019b57600080fd5b919050565b60008060008060808587031215620001b6578384fd5b620001c18562000183565b9350620001d16020860162000183565b9250620001e16040860162000183565b9150620001f16060860162000183565b905092959194509250565b60208082526026908201527f4f776e61626c653a206e6577206f776e657220697320746865207a65726f206160408201526564647265737360d01b606082015260800190565b6020808252818101527f4f776e61626c653a2063616c6c6572206973206e6f7420746865206f776e6572604082015260600190565b610acd80620002876000396000f3fe608060405234801561001057600080fd5b50600436106100885760003560e01c80638da5cb5b1161005b5780638da5cb5b146100d057806393cca918146100d8578063caed31d7146100e0578063f2fde38b146100f357610088565b80630babd8641461008d57806351ff4847146100ab57806356b606c6146100b3578063715018a6146100c8575b600080fd5b610095610106565b6040516100a291906107b2565b60405180910390f35b610095610115565b6100c66100c1366004610759565b610124565b005b6100c6610249565b610095610294565b6100956102a3565b6100c66100ee366004610759565b6102b2565b6100c661010136600461071f565b61061f565b6001546001600160a01b031690565b6003546001600160a01b031690565b8333610136604083016020840161071f565b6001600160a01b0316146101655760405162461bcd60e51b815260040161015c906107ea565b60405180910390fd5b60035460405163223746f960e11b81526001600160a01b039091169063446e8df29061019b90889088908890889060040161097a565b60206040518083038186803b1580156101b357600080fd5b505afa1580156101c7573d6000803e3d6000fd5b505050506040513d601f19601f820116820180604052508101906101eb9190610739565b6102075760405162461bcd60e51b815260040161015c906108a4565b60405133907f7d362b07025369d005d64fcf0f06442af11e0857db3b436f07c347f81c68dc059061023a908835906109fd565b60405180910390a25050505050565b610251610690565b6001600160a01b0316610262610294565b6001600160a01b0316146102885760405162461bcd60e51b815260040161015c906108f2565b6102926000610694565b565b6000546001600160a01b031690565b6002546001600160a01b031690565b83336102c4604083016020840161071f565b6001600160a01b0316146102ea5760405162461bcd60e51b815260040161015c906107ea565b60035460405163223746f960e11b81526001600160a01b039091169063446e8df29061032090889088908890889060040161097a565b60206040518083038186803b15801561033857600080fd5b505afa15801561034c573d6000803e3d6000fd5b505050506040513d601f19601f820116820180604052508101906103709190610739565b61038c5760405162461bcd60e51b815260040161015c906108a4565b61039e60a08601356060870135610a4b565b8560c0013510156103c15760405162461bcd60e51b815260040161015c90610927565b84604001358560a0013511156103e95760405162461bcd60e51b815260040161015c90610819565b600061040560646103ff60c089013560056106e4565b906106f7565b6001549091506001600160a01b03166323b872dd61042960a0890160808a0161071f565b61043960408a0160208b0161071f565b6104478560c08c0135610a6a565b6040518463ffffffff1660e01b8152600401610465939291906107c6565b602060405180830381600087803b15801561047f57600080fd5b505af1158015610493573d6000803e3d6000fd5b505050506040513d601f19601f820116820180604052508101906104b79190610739565b506001546001600160a01b03166323b872dd6104d960a0890160808a0161071f565b6104e1610294565b846040518463ffffffff1660e01b8152600401610500939291906107c6565b602060405180830381600087803b15801561051a57600080fd5b505af115801561052e573d6000803e3d6000fd5b505050506040513d601f19601f820116820180604052508101906105529190610739565b506002546001600160a01b031663965a6759873561057660408a0160208b0161071f565b61058660a08b0160808c0161071f565b8a60a001356040518563ffffffff1660e01b81526004016105aa9493929190610a06565b600060405180830381600087803b1580156105c457600080fd5b505af11580156105d8573d6000803e3d6000fd5b50506040513392507f68113ca7b748f7d17637d79856900bc9336b88166e726bc9b55c62a39408b407915061060f908935906109fd565b60405180910390a2505050505050565b610627610690565b6001600160a01b0316610638610294565b6001600160a01b03161461065e5760405162461bcd60e51b815260040161015c906108f2565b6001600160a01b0381166106845760405162461bcd60e51b815260040161015c9061085e565b61068d81610694565b50565b3390565b600080546001600160a01b038381166001600160a01b0319831681178455604051919092169283917f8be0079c531659141344cd1fd0a4f28419497f9722a3daafe3b4186f6b6457e09190a35050565b60006106f08284610a4b565b9392505050565b60006106f08284610a2b565b80356001600160a01b038116811461071a57600080fd5b919050565b600060208284031215610730578081fd5b6106f082610703565b60006020828403121561074a578081fd5b815180151581146106f0578182fd5b600080600080848603610140811215610770578384fd5b60e081121561077d578384fd5b5084935060e085013560ff81168114610794578384fd5b939693955050505061010082013591610120013590565b60ff169052565b6001600160a01b0391909116815260200190565b6001600160a01b039384168152919092166020820152604081019190915260600190565b60208082526015908201527420bab1ba34b7b7101d103737ba1031b932b0ba37b960591b604082015260600190565b60208082526025908201527f41756374696f6e203a2063616e206e6f7420627579206d6f7265207468616e2060408201526473746f636b60d81b606082015260800190565b60208082526026908201527f4f776e61626c653a206e6577206f776e657220697320746865207a65726f206160408201526564647265737360d01b606082015260800190565b6020808252602e908201527f41756374696f6e203a2062696464657220646964206e6f74207369676e20746860408201526d34b9903a3930b739b0b1ba34b7b760911b606082015260800190565b6020808252818101527f4f776e61626c653a2063616c6c6572206973206e6f7420746865206f776e6572604082015260600190565b60208082526033908201527f41756374696f6e203a207061796d656e74206d75737420626520686967686572604082015272207468616e206d696e696d756d20707269636560681b606082015260800190565b84358152610140810161098f60208701610703565b6001600160a01b0381811660208501526040888101359085015260608089013590850152806109c060808a01610703565b166080850152505060a086013560a083015260c086013560c08301526109e960e08301866107ab565b610100820193909352610120015292915050565b90815260200190565b9384526001600160a01b03928316602085015291166040830152606082015260800190565b600082610a4657634e487b7160e01b81526012600452602481fd5b500490565b6000816000190483118215151615610a6557610a65610a81565b500290565b600082821015610a7c57610a7c610a81565b500390565b634e487b7160e01b600052601160045260246000fdfea264697066735822122039807a50b86b8d1ad596de12a25bb853a3a6dcb81bcb2390f33191de19d30a2b64736f6c63430008000033",
  "linkReferences": {},
  "deployedLinkReferences": {}
}