{
  "_format": "hh-sol-artifact-1",
  "contractName": "Auction",
  "sourceName": "contracts/Auction.sol",
  "abi": [
    {
      "inputs": [
        {
          "internalType": "address",
          "name": "placeAddress",
          "type": "address"
        },
        {
          "internalType": "address",
          "name": "signatureAddress",
          "type": "address"
        },
        {
          "internalType": "address",
          "name": "owner",
          "type": "address"
        }
      ],
      "stateMutability": "nonpayable",
      "type": "constructor"
    },
    {
      "anonymous": false,
      "inputs": [
        {
          "indexed": true,
          "internalType": "address",
          "name": "owner",
          "type": "address"
        },
        {
          "indexed": true,
          "internalType": "address",
          "name": "spender",
          "type": "address"
        },
        {
          "indexed": false,
          "internalType": "uint256",
          "name": "value",
          "type": "uint256"
        }
      ],
      "name": "Approval",
      "type": "event"
    },
    {
      "anonymous": false,
      "inputs": [
        {
          "indexed": true,
          "internalType": "address",
          "name": "sender",
          "type": "address"
        },
        {
          "indexed": false,
          "internalType": "uint256",
          "name": "tokenId",
          "type": "uint256"
        }
      ],
      "name": "BidAccepted",
      "type": "event"
    },
    {
      "anonymous": false,
      "inputs": [
        {
          "indexed": true,
          "internalType": "address",
          "name": "sender",
          "type": "address"
        },
        {
          "indexed": false,
          "internalType": "uint256",
          "name": "bid",
          "type": "uint256"
        }
      ],
      "name": "BidDeclined",
      "type": "event"
    },
    {
      "anonymous": false,
      "inputs": [
        {
          "indexed": true,
          "internalType": "address",
          "name": "sender",
          "type": "address"
        },
        {
          "indexed": false,
          "internalType": "uint256",
          "name": "amount",
          "type": "uint256"
        }
      ],
      "name": "Deposited",
      "type": "event"
    },
    {
      "anonymous": false,
      "inputs": [
        {
          "indexed": true,
          "internalType": "address",
          "name": "previousOwner",
          "type": "address"
        },
        {
          "indexed": true,
          "internalType": "address",
          "name": "newOwner",
          "type": "address"
        }
      ],
      "name": "OwnershipTransferred",
      "type": "event"
    },
    {
      "anonymous": false,
      "inputs": [
        {
          "indexed": true,
          "internalType": "address",
          "name": "from",
          "type": "address"
        },
        {
          "indexed": true,
          "internalType": "address",
          "name": "to",
          "type": "address"
        },
        {
          "indexed": false,
          "internalType": "uint256",
          "name": "value",
          "type": "uint256"
        }
      ],
      "name": "Transfer",
      "type": "event"
    },
    {
      "anonymous": false,
      "inputs": [
        {
          "indexed": true,
          "internalType": "address",
          "name": "sender",
          "type": "address"
        },
        {
          "indexed": false,
          "internalType": "uint256",
          "name": "amount",
          "type": "uint256"
        }
      ],
      "name": "Withdrawed",
      "type": "event"
    },
    {
      "inputs": [
        {
          "components": [
            {
              "internalType": "uint256",
              "name": "tokenId",
              "type": "uint256"
            },
            {
              "internalType": "address",
              "name": "creator",
              "type": "address"
            },
            {
              "internalType": "uint256",
              "name": "supply",
              "type": "uint256"
            },
            {
              "internalType": "uint256",
              "name": "price",
              "type": "uint256"
            },
            {
              "internalType": "address",
              "name": "bidder",
              "type": "address"
            },
            {
              "internalType": "uint256",
              "name": "amount",
              "type": "uint256"
            },
            {
              "internalType": "uint256",
              "name": "value",
              "type": "uint256"
            },
            {
              "internalType": "bytes",
              "name": "signature",
              "type": "bytes"
            }
          ],
          "internalType": "struct Signature.Bid",
          "name": "bid",
          "type": "tuple"
        }
      ],
      "name": "acceptBid",
      "outputs": [],
      "stateMutability": "nonpayable",
      "type": "function"
    },
    {
      "inputs": [
        {
          "internalType": "address",
          "name": "owner",
          "type": "address"
        },
        {
          "internalType": "address",
          "name": "spender",
          "type": "address"
        }
      ],
      "name": "allowance",
      "outputs": [
        {
          "internalType": "uint256",
          "name": "",
          "type": "uint256"
        }
      ],
      "stateMutability": "view",
      "type": "function"
    },
    {
      "inputs": [
        {
          "internalType": "address",
          "name": "spender",
          "type": "address"
        },
        {
          "internalType": "uint256",
          "name": "amount",
          "type": "uint256"
        }
      ],
      "name": "approve",
      "outputs": [
        {
          "internalType": "bool",
          "name": "",
          "type": "bool"
        }
      ],
      "stateMutability": "nonpayable",
      "type": "function"
    },
    {
      "inputs": [
        {
          "internalType": "address",
          "name": "account",
          "type": "address"
        }
      ],
      "name": "balanceOf",
      "outputs": [
        {
          "internalType": "uint256",
          "name": "",
          "type": "uint256"
        }
      ],
      "stateMutability": "view",
      "type": "function"
    },
    {
      "inputs": [],
      "name": "decimals",
      "outputs": [
        {
          "internalType": "uint8",
          "name": "",
          "type": "uint8"
        }
      ],
      "stateMutability": "view",
      "type": "function"
    },
    {
      "inputs": [
        {
          "components": [
            {
              "internalType": "uint256",
              "name": "tokenId",
              "type": "uint256"
            },
            {
              "internalType": "address",
              "name": "creator",
              "type": "address"
            },
            {
              "internalType": "uint256",
              "name": "supply",
              "type": "uint256"
            },
            {
              "internalType": "uint256",
              "name": "price",
              "type": "uint256"
            },
            {
              "internalType": "address",
              "name": "bidder",
              "type": "address"
            },
            {
              "internalType": "uint256",
              "name": "amount",
              "type": "uint256"
            },
            {
              "internalType": "uint256",
              "name": "value",
              "type": "uint256"
            },
            {
              "internalType": "bytes",
              "name": "signature",
              "type": "bytes"
            }
          ],
          "internalType": "struct Signature.Bid",
          "name": "bid",
          "type": "tuple"
        }
      ],
      "name": "declineBid",
      "outputs": [],
      "stateMutability": "nonpayable",
      "type": "function"
    },
    {
      "inputs": [
        {
          "internalType": "address",
          "name": "spender",
          "type": "address"
        },
        {
          "internalType": "uint256",
          "name": "subtractedValue",
          "type": "uint256"
        }
      ],
      "name": "decreaseAllowance",
      "outputs": [
        {
          "internalType": "bool",
          "name": "",
          "type": "bool"
        }
      ],
      "stateMutability": "nonpayable",
      "type": "function"
    },
    {
      "inputs": [],
      "name": "deposit",
      "outputs": [],
      "stateMutability": "payable",
      "type": "function"
    },
    {
      "inputs": [
        {
          "internalType": "address",
          "name": "spender",
          "type": "address"
        },
        {
          "internalType": "uint256",
          "name": "addedValue",
          "type": "uint256"
        }
      ],
      "name": "increaseAllowance",
      "outputs": [
        {
          "internalType": "bool",
          "name": "",
          "type": "bool"
        }
      ],
      "stateMutability": "nonpayable",
      "type": "function"
    },
    {
      "inputs": [],
      "name": "name",
      "outputs": [
        {
          "internalType": "string",
          "name": "",
          "type": "string"
        }
      ],
      "stateMutability": "view",
      "type": "function"
    },
    {
      "inputs": [],
      "name": "owner",
      "outputs": [
        {
          "internalType": "address",
          "name": "",
          "type": "address"
        }
      ],
      "stateMutability": "view",
      "type": "function"
    },
    {
      "inputs": [],
      "name": "place",
      "outputs": [
        {
          "internalType": "contract Place",
          "name": "",
          "type": "address"
        }
      ],
      "stateMutability": "view",
      "type": "function"
    },
    {
      "inputs": [],
      "name": "renounceOwnership",
      "outputs": [],
      "stateMutability": "nonpayable",
      "type": "function"
    },
    {
      "inputs": [],
      "name": "signature",
      "outputs": [
        {
          "internalType": "contract Signature",
          "name": "",
          "type": "address"
        }
      ],
      "stateMutability": "view",
      "type": "function"
    },
    {
      "inputs": [],
      "name": "symbol",
      "outputs": [
        {
          "internalType": "string",
          "name": "",
          "type": "string"
        }
      ],
      "stateMutability": "view",
      "type": "function"
    },
    {
      "inputs": [],
      "name": "totalSupply",
      "outputs": [
        {
          "internalType": "uint256",
          "name": "",
          "type": "uint256"
        }
      ],
      "stateMutability": "view",
      "type": "function"
    },
    {
      "inputs": [
        {
          "internalType": "address",
          "name": "recipient",
          "type": "address"
        },
        {
          "internalType": "uint256",
          "name": "amount",
          "type": "uint256"
        }
      ],
      "name": "transfer",
      "outputs": [
        {
          "internalType": "bool",
          "name": "",
          "type": "bool"
        }
      ],
      "stateMutability": "nonpayable",
      "type": "function"
    },
    {
      "inputs": [
        {
          "internalType": "address",
          "name": "sender",
          "type": "address"
        },
        {
          "internalType": "address",
          "name": "recipient",
          "type": "address"
        },
        {
          "internalType": "uint256",
          "name": "amount",
          "type": "uint256"
        }
      ],
      "name": "transferFrom",
      "outputs": [
        {
          "internalType": "bool",
          "name": "",
          "type": "bool"
        }
      ],
      "stateMutability": "nonpayable",
      "type": "function"
    },
    {
      "inputs": [
        {
          "internalType": "address",
          "name": "newOwner",
          "type": "address"
        }
      ],
      "name": "transferOwnership",
      "outputs": [],
      "stateMutability": "nonpayable",
      "type": "function"
    },
    {
      "inputs": [
        {
          "internalType": "uint256",
          "name": "amount",
          "type": "uint256"
        }
      ],
      "name": "withdraw",
      "outputs": [],
      "stateMutability": "nonpayable",
      "type": "function"
    },
    {
      "stateMutability": "payable",
      "type": "receive"
    }
  ],
  "bytecode": "0x60806040523480156200001157600080fd5b5060405162001d1438038062001d148339810160408190526200003491620002a9565b604080518082018252600c81526b2bb930b83832b222ba3432b960a11b6020808301918252835180850190945260048452630ae8aa8960e31b9084015281519192916200008491600391620001e6565b5080516200009a906004906020840190620001e6565b505050620000b7620000b1620000fb60201b60201c565b620000ff565b600680546001600160a01b038086166001600160a01b0319928316179092556007805492851692909116919091179055620000f28162000151565b505050620003aa565b3390565b600580546001600160a01b038381166001600160a01b0319831681179093556040519116919082907f8be0079c531659141344cd1fd0a4f28419497f9722a3daafe3b4186f6b6457e090600090a35050565b6200015b620000fb565b6001600160a01b03166200016e620001d7565b6001600160a01b031614620001a05760405162461bcd60e51b8152600401620001979062000338565b60405180910390fd5b6001600160a01b038116620001c95760405162461bcd60e51b81526004016200019790620002f2565b620001d481620000ff565b50565b6005546001600160a01b031690565b828054620001f4906200036d565b90600052602060002090601f01602090048101928262000218576000855562000263565b82601f106200023357805160ff191683800117855562000263565b8280016001018555821562000263579182015b828111156200026357825182559160200191906001019062000246565b506200027192915062000275565b5090565b5b8082111562000271576000815560010162000276565b80516001600160a01b0381168114620002a457600080fd5b919050565b600080600060608486031215620002be578283fd5b620002c9846200028c565b9250620002d9602085016200028c565b9150620002e9604085016200028c565b90509250925092565b60208082526026908201527f4f776e61626c653a206e6577206f776e657220697320746865207a65726f206160408201526564647265737360d01b606082015260800190565b6020808252818101527f4f776e61626c653a2063616c6c6572206973206e6f7420746865206f776e6572604082015260600190565b6002810460018216806200038257607f821691505b60208210811415620003a457634e487b7160e01b600052602260045260246000fd5b50919050565b61195a80620003ba6000396000f3fe6080604052600436106101235760003560e01c80638da5cb5b116100a0578063a457c2d711610064578063a457c2d71461030b578063a9059cbb1461032b578063d0e30db01461034b578063dd62ed3e14610353578063f2fde38b1461037357610134565b80638da5cb5b1461028c57806393cca918146102a157806395d89b41146102b6578063a10e567d146102cb578063a2f476f7146102eb57610134565b8063313ce567116100e7578063313ce567146101f3578063395093511461021557806351ff48471461023557806370a0823114610257578063715018a61461027757610134565b806306fdde0314610139578063095ea7b31461016457806318160ddd1461019157806323b872dd146101b35780632e1a7d4d146101d357610134565b36610134576101323334610393565b005b600080fd5b34801561014557600080fd5b5061014e6103e2565b60405161015b91906111cd565b60405180910390f35b34801561017057600080fd5b5061018461017f3660046110f8565b610474565b60405161015b91906111c2565b34801561019d57600080fd5b506101a6610491565b60405161015b91906117c8565b3480156101bf57600080fd5b506101846101ce3660046110b8565b610497565b3480156101df57600080fd5b506101326101ee36600461115c565b610530565b3480156101ff57600080fd5b506102086105b0565b60405161015b91906117f6565b34801561022157600080fd5b506101846102303660046110f8565b6105b5565b34801561024157600080fd5b5061024a610609565b60405161015b91906111ae565b34801561026357600080fd5b506101a6610272366004611048565b610618565b34801561028357600080fd5b50610132610637565b34801561029857600080fd5b5061024a610682565b3480156102ad57600080fd5b5061024a610691565b3480156102c257600080fd5b5061014e6106a0565b3480156102d757600080fd5b506101326102e6366004611123565b6106af565b3480156102f757600080fd5b50610132610306366004611123565b6107ea565b34801561031757600080fd5b506101846103263660046110f8565b610a5d565b34801561033757600080fd5b506101846103463660046110f8565b610ad6565b610132610aea565b34801561035f57600080fd5b506101a661036e366004611080565b610af4565b34801561037f57600080fd5b5061013261038e366004611048565b610b1f565b61039d8282610b90565b816001600160a01b03167f2da466a7b24304f47e87fa2e1e5a81b9831ce54fec19055ce277ca2f39ba42c4826040516103d691906117c8565b60405180910390a25050565b6060600380546103f1906118be565b80601f016020809104026020016040519081016040528092919081815260200182805461041d906118be565b801561046a5780601f1061043f5761010080835404028352916020019161046a565b820191906000526020600020905b81548152906001019060200180831161044d57829003601f168201915b5050505050905090565b6000610488610481610c5c565b8484610c60565b50600192915050565b60025490565b60006104a4848484610d14565b6001600160a01b0384166000908152600160205260408120816104c5610c5c565b6001600160a01b03166001600160a01b03168152602001908152602001600020549050828110156105115760405162461bcd60e51b81526004016105089061151a565b60405180910390fd5b6105258561051d610c5c565b858403610c60565b506001949350505050565b8061053a33610618565b10156105585760405162461bcd60e51b8152600401610508906113a1565b6105623382610e3e565b61056c3382610f30565b336001600160a01b03167f6cca423c6ffc06e62a0acc433965e074b11c28479b0449250ce3ff65ac9e39fe826040516105a591906117c8565b60405180910390a250565b601290565b60006104886105c2610c5c565b8484600160006105d0610c5c565b6001600160a01b03908116825260208083019390935260409182016000908120918b16815292529020546106049190611850565b610c60565b6007546001600160a01b031690565b6001600160a01b0381166000908152602081905260409020545b919050565b61063f610c5c565b6001600160a01b0316610650610682565b6001600160a01b0316146106765760405162461bcd60e51b815260040161050890611562565b6106806000610fcc565b565b6005546001600160a01b031690565b6006546001600160a01b031690565b6060600480546103f1906118be565b80336106c16040830160208401611048565b6001600160a01b0316146106e75760405162461bcd60e51b815260040161050890611220565b6007546040516305ac10df60e01b81526000916001600160a01b0316906305ac10df90610718908690600401611730565b60206040518083038186803b15801561073057600080fd5b505afa158015610744573d6000803e3d6000fd5b505050506040513d601f19601f820116820180604052508101906107689190611064565b905061077a60a0840160808501611048565b6001600160a01b0316816001600160a01b0316146107aa5760405162461bcd60e51b8152600401610508906114cc565b60405133907f7d362b07025369d005d64fcf0f06442af11e0857db3b436f07c347f81c68dc05906107dd908635906117c8565b60405180910390a2505050565b80336107fc6040830160208401611048565b6001600160a01b0316146108225760405162461bcd60e51b815260040161050890611220565b6007546040516305ac10df60e01b81526000916001600160a01b0316906305ac10df90610853908690600401611730565b60206040518083038186803b15801561086b57600080fd5b505afa15801561087f573d6000803e3d6000fd5b505050506040513d601f19601f820116820180604052508101906108a39190611064565b90506108b560a0840160808501611048565b6001600160a01b0316816001600160a01b0316146108e55760405162461bcd60e51b8152600401610508906114cc565b82606001358360c00135101561090d5760405162461bcd60e51b815260040161050890611661565b82604001358360a0013511156109355760405162461bcd60e51b8152600401610508906112d4565b61096261094860a0850160808601611048565b6109586040860160208701611048565b8560c00135610497565b50600061097f606461097960c0870135600561101e565b90611031565b905061099261098c610682565b82610ad6565b506006546001600160a01b031663965a675985356109b66040880160208901611048565b6109c660a0890160808a01611048565b8860a001356040518563ffffffff1660e01b81526004016109ea94939291906117d1565b600060405180830381600087803b158015610a0457600080fd5b505af1158015610a18573d6000803e3d6000fd5b50506040513392507f68113ca7b748f7d17637d79856900bc9336b88166e726bc9b55c62a39408b4079150610a4f908735906117c8565b60405180910390a250505050565b60008060016000610a6c610c5c565b6001600160a01b0390811682526020808301939093526040918201600090812091881681529252902054905082811015610ab85760405162461bcd60e51b8152600401610508906116b4565b610acc610ac3610c5c565b85858403610c60565b5060019392505050565b6000610488610ae3610c5c565b8484610d14565b6106803334610393565b6001600160a01b03918216600090815260016020908152604080832093909416825291909152205490565b610b27610c5c565b6001600160a01b0316610b38610682565b6001600160a01b031614610b5e5760405162461bcd60e51b815260040161050890611562565b6001600160a01b038116610b845760405162461bcd60e51b815260040161050890611319565b610b8d81610fcc565b50565b6001600160a01b038216610bb65760405162461bcd60e51b8152600401610508906116f9565b610bc260008383610f2b565b8060026000828254610bd49190611850565b90915550506001600160a01b03821660009081526020819052604081208054839290610c01908490611850565b90915550506040516001600160a01b038316906000907fddf252ad1be2c89b69c2b068fc378daa952ba7f163c4a11628f55a4df523b3ef90610c449085906117c8565b60405180910390a3610c5860008383610f2b565b5050565b3390565b6001600160a01b038316610c865760405162461bcd60e51b81526004016105089061161d565b6001600160a01b038216610cac5760405162461bcd60e51b81526004016105089061135f565b6001600160a01b0380841660008181526001602090815260408083209487168084529490915290819020849055517f8c5be1e5ebec7d5bd14f71427d1e84f3dd0314c0f7b2291e5b200ac8c7c3b92590610d079085906117c8565b60405180910390a3505050565b6001600160a01b038316610d3a5760405162461bcd60e51b8152600401610508906115d8565b6001600160a01b038216610d605760405162461bcd60e51b81526004016105089061124f565b610d6b838383610f2b565b6001600160a01b03831660009081526020819052604090205481811015610da45760405162461bcd60e51b8152600401610508906113f2565b6001600160a01b03808516600090815260208190526040808220858503905591851681529081208054849290610ddb908490611850565b92505081905550826001600160a01b0316846001600160a01b03167fddf252ad1be2c89b69c2b068fc378daa952ba7f163c4a11628f55a4df523b3ef84604051610e2591906117c8565b60405180910390a3610e38848484610f2b565b50505050565b6001600160a01b038216610e645760405162461bcd60e51b815260040161050890611597565b610e7082600083610f2b565b6001600160a01b03821660009081526020819052604090205481811015610ea95760405162461bcd60e51b815260040161050890611292565b6001600160a01b0383166000908152602081905260408120838303905560028054849290610ed89084906118a7565b90915550506040516000906001600160a01b038516907fddf252ad1be2c89b69c2b068fc378daa952ba7f163c4a11628f55a4df523b3ef90610f1b9086906117c8565b60405180910390a3610f2b836000845b505050565b80471015610f505760405162461bcd60e51b815260040161050890611495565b6000826001600160a01b031682604051610f69906111ab565b60006040518083038185875af1925050503d8060008114610fa6576040519150601f19603f3d011682016040523d82523d6000602084013e610fab565b606091505b5050905080610f2b5760405162461bcd60e51b815260040161050890611438565b600580546001600160a01b038381166001600160a01b0319831681179093556040519116919082907f8be0079c531659141344cd1fd0a4f28419497f9722a3daafe3b4186f6b6457e090600090a35050565b600061102a8284611888565b9392505050565b600061102a8284611868565b80356106328161190f565b600060208284031215611059578081fd5b813561102a8161190f565b600060208284031215611075578081fd5b815161102a8161190f565b60008060408385031215611092578081fd5b823561109d8161190f565b915060208301356110ad8161190f565b809150509250929050565b6000806000606084860312156110cc578081fd5b83356110d78161190f565b925060208401356110e78161190f565b929592945050506040919091013590565b6000806040838503121561110a578182fd5b82356111158161190f565b946020939093013593505050565b600060208284031215611134578081fd5b813567ffffffffffffffff81111561114a578182fd5b8201610100818503121561102a578182fd5b60006020828403121561116d578081fd5b5035919050565b6001600160a01b03169052565b60008284528282602086013780602084860101526020601f19601f85011685010190509392505050565b90565b6001600160a01b0391909116815260200190565b901515815260200190565b6000602080835283518082850152825b818110156111f9578581018301518582016040015282016111dd565b8181111561120a5783604083870101525b50601f01601f1916929092016040019392505050565b60208082526015908201527420bab1ba34b7b7101d103737ba1031b932b0ba37b960591b604082015260600190565b60208082526023908201527f45524332303a207472616e7366657220746f20746865207a65726f206164647260408201526265737360e81b606082015260800190565b60208082526022908201527f45524332303a206275726e20616d6f756e7420657863656564732062616c616e604082015261636560f01b606082015260800190565b60208082526025908201527f41756374696f6e203a2063616e206e6f7420627579206d6f7265207468616e2060408201526473746f636b60d81b606082015260800190565b60208082526026908201527f4f776e61626c653a206e6577206f776e657220697320746865207a65726f206160408201526564647265737360d01b606082015260800190565b60208082526022908201527f45524332303a20617070726f766520746f20746865207a65726f206164647265604082015261737360f01b606082015260800190565b60208082526031908201527f41756374696f6e203a20796f752063616e206e6f74207769746864726177206d6040820152706f7265207468616e20796f75206861766560781b606082015260800190565b60208082526026908201527f45524332303a207472616e7366657220616d6f756e7420657863656564732062604082015265616c616e636560d01b606082015260800190565b6020808252603a908201527f416464726573733a20756e61626c6520746f2073656e642076616c75652c207260408201527f6563697069656e74206d61792068617665207265766572746564000000000000606082015260800190565b6020808252601d908201527f416464726573733a20696e73756666696369656e742062616c616e6365000000604082015260600190565b6020808252602e908201527f41756374696f6e203a2062696464657220646964206e6f74207369676e20746860408201526d34b9903a3930b739b0b1ba34b7b760911b606082015260800190565b60208082526028908201527f45524332303a207472616e7366657220616d6f756e74206578636565647320616040820152676c6c6f77616e636560c01b606082015260800190565b6020808252818101527f4f776e61626c653a2063616c6c6572206973206e6f7420746865206f776e6572604082015260600190565b60208082526021908201527f45524332303a206275726e2066726f6d20746865207a65726f206164647265736040820152607360f81b606082015260800190565b60208082526025908201527f45524332303a207472616e736665722066726f6d20746865207a65726f206164604082015264647265737360d81b606082015260800190565b60208082526024908201527f45524332303a20617070726f76652066726f6d20746865207a65726f206164646040820152637265737360e01b606082015260800190565b60208082526033908201527f41756374696f6e203a207061796d656e74206d75737420626520686967686572604082015272207468616e206d696e696d756d20707269636560681b606082015260800190565b60208082526025908201527f45524332303a2064656372656173656420616c6c6f77616e63652062656c6f77604082015264207a65726f60d81b606082015260800190565b6020808252601f908201527f45524332303a206d696e7420746f20746865207a65726f206164647265737300604082015260600190565b60006020825282356020830152602083013561174b8161190f565b60018060a01b038116604084015250604083013560608301526060830135608083015261177a6080840161103d565b61178760a0840182611174565b5060a083013560c083015260c083013560e08301526117a960e0840184611804565b610100848101526117bf61012085018284611181565b95945050505050565b90815260200190565b9384526001600160a01b03928316602085015291166040830152606082015260800190565b60ff91909116815260200190565b6000808335601e1984360301811261181a578283fd5b830160208101925035905067ffffffffffffffff81111561183a57600080fd5b80360383131561184957600080fd5b9250929050565b60008219821115611863576118636118f9565b500190565b60008261188357634e487b7160e01b81526012600452602481fd5b500490565b60008160001904831182151516156118a2576118a26118f9565b500290565b6000828210156118b9576118b96118f9565b500390565b6002810460018216806118d257607f821691505b602082108114156118f357634e487b7160e01b600052602260045260246000fd5b50919050565b634e487b7160e01b600052601160045260246000fd5b6001600160a01b0381168114610b8d57600080fdfea2646970667358221220b93fbb06486ababe7088e6373f4e035e51a6ce5281b5f0cbdf9f0dcc56d442c164736f6c63430008000033",
  "linkReferences": {},
  "deployedLinkReferences": {}
}