{
  "_format": "hh-sol-artifact-1",
  "contractName": "Auction",
  "sourceName": "contracts/Auction.sol",
  "abi": [
    {
      "inputs": [
        {
          "internalType": "address",
          "name": "placeAddress",
          "type": "address"
        },
        {
          "internalType": "address",
          "name": "signatureAddress",
          "type": "address"
        },
        {
          "internalType": "address",
          "name": "owner",
          "type": "address"
        }
      ],
      "stateMutability": "nonpayable",
      "type": "constructor"
    },
    {
      "anonymous": false,
      "inputs": [
        {
          "indexed": true,
          "internalType": "address",
          "name": "owner",
          "type": "address"
        },
        {
          "indexed": true,
          "internalType": "address",
          "name": "spender",
          "type": "address"
        },
        {
          "indexed": false,
          "internalType": "uint256",
          "name": "value",
          "type": "uint256"
        }
      ],
      "name": "Approval",
      "type": "event"
    },
    {
      "anonymous": false,
      "inputs": [
        {
          "indexed": true,
          "internalType": "address",
          "name": "sender",
          "type": "address"
        },
        {
          "indexed": false,
          "internalType": "uint256",
          "name": "tokenId",
          "type": "uint256"
        }
      ],
      "name": "BidAccepted",
      "type": "event"
    },
    {
      "anonymous": false,
      "inputs": [
        {
          "indexed": true,
          "internalType": "address",
          "name": "sender",
          "type": "address"
        },
        {
          "indexed": false,
          "internalType": "uint256",
          "name": "tokenId",
          "type": "uint256"
        }
      ],
      "name": "BidDeclined",
      "type": "event"
    },
    {
      "anonymous": false,
      "inputs": [
        {
          "indexed": true,
          "internalType": "address",
          "name": "sender",
          "type": "address"
        },
        {
          "indexed": false,
          "internalType": "uint256",
          "name": "amount",
          "type": "uint256"
        }
      ],
      "name": "Deposited",
      "type": "event"
    },
    {
      "anonymous": false,
      "inputs": [
        {
          "indexed": true,
          "internalType": "address",
          "name": "previousOwner",
          "type": "address"
        },
        {
          "indexed": true,
          "internalType": "address",
          "name": "newOwner",
          "type": "address"
        }
      ],
      "name": "OwnershipTransferred",
      "type": "event"
    },
    {
      "anonymous": false,
      "inputs": [
        {
          "indexed": true,
          "internalType": "address",
          "name": "from",
          "type": "address"
        },
        {
          "indexed": true,
          "internalType": "address",
          "name": "to",
          "type": "address"
        },
        {
          "indexed": false,
          "internalType": "uint256",
          "name": "value",
          "type": "uint256"
        }
      ],
      "name": "Transfer",
      "type": "event"
    },
    {
      "anonymous": false,
      "inputs": [
        {
          "indexed": true,
          "internalType": "address",
          "name": "sender",
          "type": "address"
        },
        {
          "indexed": false,
          "internalType": "uint256",
          "name": "amount",
          "type": "uint256"
        }
      ],
      "name": "Withdrawed",
      "type": "event"
    },
    {
      "inputs": [
        {
          "components": [
            {
              "internalType": "uint256",
              "name": "tokenId",
              "type": "uint256"
            },
            {
              "internalType": "address",
              "name": "creator",
              "type": "address"
            },
            {
              "internalType": "uint256",
              "name": "supply",
              "type": "uint256"
            },
            {
              "internalType": "uint256",
              "name": "price",
              "type": "uint256"
            },
            {
              "internalType": "address",
              "name": "bidder",
              "type": "address"
            },
            {
              "internalType": "uint256",
              "name": "amount",
              "type": "uint256"
            },
            {
              "internalType": "uint256",
              "name": "value",
              "type": "uint256"
            }
          ],
          "internalType": "struct Signature.Bid",
          "name": "bid",
          "type": "tuple"
        },
        {
          "internalType": "uint8",
          "name": "v",
          "type": "uint8"
        },
        {
          "internalType": "bytes32",
          "name": "r",
          "type": "bytes32"
        },
        {
          "internalType": "bytes32",
          "name": "s",
          "type": "bytes32"
        }
      ],
      "name": "acceptBid",
      "outputs": [],
      "stateMutability": "nonpayable",
      "type": "function"
    },
    {
      "inputs": [
        {
          "internalType": "address",
          "name": "owner",
          "type": "address"
        },
        {
          "internalType": "address",
          "name": "spender",
          "type": "address"
        }
      ],
      "name": "allowance",
      "outputs": [
        {
          "internalType": "uint256",
          "name": "",
          "type": "uint256"
        }
      ],
      "stateMutability": "view",
      "type": "function"
    },
    {
      "inputs": [
        {
          "internalType": "address",
          "name": "spender",
          "type": "address"
        },
        {
          "internalType": "uint256",
          "name": "amount",
          "type": "uint256"
        }
      ],
      "name": "approve",
      "outputs": [
        {
          "internalType": "bool",
          "name": "",
          "type": "bool"
        }
      ],
      "stateMutability": "nonpayable",
      "type": "function"
    },
    {
      "inputs": [
        {
          "internalType": "address",
          "name": "account",
          "type": "address"
        }
      ],
      "name": "balanceOf",
      "outputs": [
        {
          "internalType": "uint256",
          "name": "",
          "type": "uint256"
        }
      ],
      "stateMutability": "view",
      "type": "function"
    },
    {
      "inputs": [],
      "name": "decimals",
      "outputs": [
        {
          "internalType": "uint8",
          "name": "",
          "type": "uint8"
        }
      ],
      "stateMutability": "view",
      "type": "function"
    },
    {
      "inputs": [
        {
          "components": [
            {
              "internalType": "uint256",
              "name": "tokenId",
              "type": "uint256"
            },
            {
              "internalType": "address",
              "name": "creator",
              "type": "address"
            },
            {
              "internalType": "uint256",
              "name": "supply",
              "type": "uint256"
            },
            {
              "internalType": "uint256",
              "name": "price",
              "type": "uint256"
            },
            {
              "internalType": "address",
              "name": "bidder",
              "type": "address"
            },
            {
              "internalType": "uint256",
              "name": "amount",
              "type": "uint256"
            },
            {
              "internalType": "uint256",
              "name": "value",
              "type": "uint256"
            }
          ],
          "internalType": "struct Signature.Bid",
          "name": "bid",
          "type": "tuple"
        },
        {
          "internalType": "uint8",
          "name": "v",
          "type": "uint8"
        },
        {
          "internalType": "bytes32",
          "name": "r",
          "type": "bytes32"
        },
        {
          "internalType": "bytes32",
          "name": "s",
          "type": "bytes32"
        }
      ],
      "name": "declineBid",
      "outputs": [],
      "stateMutability": "nonpayable",
      "type": "function"
    },
    {
      "inputs": [
        {
          "internalType": "address",
          "name": "spender",
          "type": "address"
        },
        {
          "internalType": "uint256",
          "name": "subtractedValue",
          "type": "uint256"
        }
      ],
      "name": "decreaseAllowance",
      "outputs": [
        {
          "internalType": "bool",
          "name": "",
          "type": "bool"
        }
      ],
      "stateMutability": "nonpayable",
      "type": "function"
    },
    {
      "inputs": [],
      "name": "deposit",
      "outputs": [],
      "stateMutability": "payable",
      "type": "function"
    },
    {
      "inputs": [
        {
          "internalType": "address",
          "name": "spender",
          "type": "address"
        },
        {
          "internalType": "uint256",
          "name": "addedValue",
          "type": "uint256"
        }
      ],
      "name": "increaseAllowance",
      "outputs": [
        {
          "internalType": "bool",
          "name": "",
          "type": "bool"
        }
      ],
      "stateMutability": "nonpayable",
      "type": "function"
    },
    {
      "inputs": [],
      "name": "name",
      "outputs": [
        {
          "internalType": "string",
          "name": "",
          "type": "string"
        }
      ],
      "stateMutability": "view",
      "type": "function"
    },
    {
      "inputs": [],
      "name": "owner",
      "outputs": [
        {
          "internalType": "address",
          "name": "",
          "type": "address"
        }
      ],
      "stateMutability": "view",
      "type": "function"
    },
    {
      "inputs": [],
      "name": "place",
      "outputs": [
        {
          "internalType": "contract Place",
          "name": "",
          "type": "address"
        }
      ],
      "stateMutability": "view",
      "type": "function"
    },
    {
      "inputs": [],
      "name": "renounceOwnership",
      "outputs": [],
      "stateMutability": "nonpayable",
      "type": "function"
    },
    {
      "inputs": [],
      "name": "signature",
      "outputs": [
        {
          "internalType": "contract Signature",
          "name": "",
          "type": "address"
        }
      ],
      "stateMutability": "view",
      "type": "function"
    },
    {
      "inputs": [],
      "name": "symbol",
      "outputs": [
        {
          "internalType": "string",
          "name": "",
          "type": "string"
        }
      ],
      "stateMutability": "view",
      "type": "function"
    },
    {
      "inputs": [],
      "name": "totalSupply",
      "outputs": [
        {
          "internalType": "uint256",
          "name": "",
          "type": "uint256"
        }
      ],
      "stateMutability": "view",
      "type": "function"
    },
    {
      "inputs": [
        {
          "internalType": "address",
          "name": "recipient",
          "type": "address"
        },
        {
          "internalType": "uint256",
          "name": "amount",
          "type": "uint256"
        }
      ],
      "name": "transfer",
      "outputs": [
        {
          "internalType": "bool",
          "name": "",
          "type": "bool"
        }
      ],
      "stateMutability": "nonpayable",
      "type": "function"
    },
    {
      "inputs": [
        {
          "internalType": "address",
          "name": "sender",
          "type": "address"
        },
        {
          "internalType": "address",
          "name": "recipient",
          "type": "address"
        },
        {
          "internalType": "uint256",
          "name": "amount",
          "type": "uint256"
        }
      ],
      "name": "transferFrom",
      "outputs": [
        {
          "internalType": "bool",
          "name": "",
          "type": "bool"
        }
      ],
      "stateMutability": "nonpayable",
      "type": "function"
    },
    {
      "inputs": [
        {
          "internalType": "address",
          "name": "newOwner",
          "type": "address"
        }
      ],
      "name": "transferOwnership",
      "outputs": [],
      "stateMutability": "nonpayable",
      "type": "function"
    },
    {
      "inputs": [
        {
          "internalType": "uint256",
          "name": "amount",
          "type": "uint256"
        }
      ],
      "name": "withdraw",
      "outputs": [],
      "stateMutability": "nonpayable",
      "type": "function"
    },
    {
      "stateMutability": "payable",
      "type": "receive"
    }
  ],
  "bytecode": "0x60806040523480156200001157600080fd5b5060405162001c5538038062001c558339810160408190526200003491620002a7565b604080518082018252600a8152692bb930b83832b221272160b11b6020808301918252835180850190945260048452632ba1272160e11b9084015281519192916200008291600391620001e4565b50805162000098906004906020840190620001e4565b505050620000b5620000af620000f960201b60201c565b620000fd565b600680546001600160a01b038086166001600160a01b0319928316179092556007805492851692909116919091179055620000f0816200014f565b505050620003a8565b3390565b600580546001600160a01b038381166001600160a01b0319831681179093556040519116919082907f8be0079c531659141344cd1fd0a4f28419497f9722a3daafe3b4186f6b6457e090600090a35050565b62000159620000f9565b6001600160a01b03166200016c620001d5565b6001600160a01b0316146200019e5760405162461bcd60e51b8152600401620001959062000336565b60405180910390fd5b6001600160a01b038116620001c75760405162461bcd60e51b81526004016200019590620002f0565b620001d281620000fd565b50565b6005546001600160a01b031690565b828054620001f2906200036b565b90600052602060002090601f01602090048101928262000216576000855562000261565b82601f106200023157805160ff191683800117855562000261565b8280016001018555821562000261579182015b828111156200026157825182559160200191906001019062000244565b506200026f92915062000273565b5090565b5b808211156200026f576000815560010162000274565b80516001600160a01b0381168114620002a257600080fd5b919050565b600080600060608486031215620002bc578283fd5b620002c7846200028a565b9250620002d7602085016200028a565b9150620002e7604085016200028a565b90509250925092565b60208082526026908201527f4f776e61626c653a206e6577206f776e657220697320746865207a65726f206160408201526564647265737360d01b606082015260800190565b6020808252818101527f4f776e61626c653a2063616c6c6572206973206e6f7420746865206f776e6572604082015260600190565b6002810460018216806200038057607f821691505b60208210811415620003a257634e487b7160e01b600052602260045260246000fd5b50919050565b61189d80620003b86000396000f3fe6080604052600436106101235760003560e01c8063715018a6116100a0578063a9059cbb11610064578063a9059cbb1461030b578063caed31d71461032b578063d0e30db01461034b578063dd62ed3e14610353578063f2fde38b1461037357610134565b8063715018a6146102975780638da5cb5b146102ac57806393cca918146102c157806395d89b41146102d6578063a457c2d7146102eb57610134565b8063313ce567116100e7578063313ce567146101f3578063395093511461021557806351ff48471461023557806356b606c61461025757806370a082311461027757610134565b806306fdde0314610139578063095ea7b31461016457806318160ddd1461019157806323b872dd146101b35780632e1a7d4d146101d357610134565b36610134576101323334610393565b005b600080fd5b34801561014557600080fd5b5061014e6103e2565b60405161015b9190611186565b60405180910390f35b34801561017057600080fd5b5061018461017f3660046110aa565b610474565b60405161015b919061117b565b34801561019d57600080fd5b506101a6610491565b60405161015b919061176c565b3480156101bf57600080fd5b506101846101ce36600461106f565b610497565b3480156101df57600080fd5b506101326101ee366004611145565b610530565b3480156101ff57600080fd5b506102086105b0565b60405161015b919061179a565b34801561022157600080fd5b506101846102303660046110aa565b6105b5565b34801561024157600080fd5b5061024a610609565b60405161015b9190611167565b34801561026357600080fd5b506101326102723660046110f3565b610618565b34801561028357600080fd5b506101a6610292366004611023565b610734565b3480156102a357600080fd5b50610132610753565b3480156102b857600080fd5b5061024a61079e565b3480156102cd57600080fd5b5061024a6107ad565b3480156102e257600080fd5b5061014e6107bc565b3480156102f757600080fd5b506101846103063660046110aa565b6107cb565b34801561031757600080fd5b506101846103263660046110aa565b610844565b34801561033757600080fd5b506101326103463660046110f3565b610858565b610132610ab9565b34801561035f57600080fd5b506101a661036e36600461103d565b610ac3565b34801561037f57600080fd5b5061013261038e366004611023565b610aee565b61039d8282610b5f565b816001600160a01b03167f2da466a7b24304f47e87fa2e1e5a81b9831ce54fec19055ce277ca2f39ba42c4826040516103d6919061176c565b60405180910390a25050565b6060600380546103f190611816565b80601f016020809104026020016040519081016040528092919081815260200182805461041d90611816565b801561046a5780601f1061043f5761010080835404028352916020019161046a565b820191906000526020600020905b81548152906001019060200180831161044d57829003601f168201915b5050505050905090565b6000610488610481610c2b565b8484610c2f565b50600192915050565b60025490565b60006104a4848484610ce3565b6001600160a01b0384166000908152600160205260408120816104c5610c2b565b6001600160a01b03166001600160a01b03168152602001908152602001600020549050828110156105115760405162461bcd60e51b8152600401610508906114d3565b60405180910390fd5b6105258561051d610c2b565b858403610c2f565b506001949350505050565b8061053a33610734565b10156105585760405162461bcd60e51b81526004016105089061135a565b6105623382610e0d565b61056c3382610eff565b336001600160a01b03167f6cca423c6ffc06e62a0acc433965e074b11c28479b0449250ce3ff65ac9e39fe826040516105a5919061176c565b60405180910390a250565b601290565b60006104886105c2610c2b565b8484600160006105d0610c2b565b6001600160a01b03908116825260208083019390935260409182016000908120918b168152925290205461060491906117a8565b610c2f565b6007546001600160a01b031690565b833361062a6040830160208401611023565b6001600160a01b0316146106505760405162461bcd60e51b8152600401610508906111d9565b60075460405163223746f960e11b81526001600160a01b039091169063446e8df2906106869088908890889088906004016116e9565b60206040518083038186803b15801561069e57600080fd5b505afa1580156106b2573d6000803e3d6000fd5b505050506040513d601f19601f820116820180604052508101906106d691906110d3565b6106f25760405162461bcd60e51b815260040161050890611485565b60405133907f7d362b07025369d005d64fcf0f06442af11e0857db3b436f07c347f81c68dc05906107259088359061176c565b60405180910390a25050505050565b6001600160a01b0381166000908152602081905260409020545b919050565b61075b610c2b565b6001600160a01b031661076c61079e565b6001600160a01b0316146107925760405162461bcd60e51b81526004016105089061151b565b61079c6000610f9b565b565b6005546001600160a01b031690565b6006546001600160a01b031690565b6060600480546103f190611816565b600080600160006107da610c2b565b6001600160a01b03908116825260208083019390935260409182016000908120918816815292529020549050828110156108265760405162461bcd60e51b81526004016105089061166d565b61083a610831610c2b565b85858403610c2f565b5060019392505050565b6000610488610851610c2b565b8484610ce3565b833361086a6040830160208401611023565b6001600160a01b0316146108905760405162461bcd60e51b8152600401610508906111d9565b60075460405163223746f960e11b81526001600160a01b039091169063446e8df2906108c69088908890889088906004016116e9565b60206040518083038186803b1580156108de57600080fd5b505afa1580156108f2573d6000803e3d6000fd5b505050506040513d601f19601f8201168201806040525081019061091691906110d3565b6109325760405162461bcd60e51b815260040161050890611485565b61094460a086013560608701356117e0565b8560c0013510156109675760405162461bcd60e51b81526004016105089061161a565b84604001358560a00135111561098f5760405162461bcd60e51b81526004016105089061128d565b6109bc6109a260a0870160808801611023565b6109b26040880160208901611023565b8760c00135610497565b5060006109d960646109d360c08901356005610fed565b90611000565b90506109ec6109e661079e565b82610844565b506006546001600160a01b031663965a67598735610a1060408a0160208b01611023565b610a2060a08b0160808c01611023565b8a60a001356040518563ffffffff1660e01b8152600401610a449493929190611775565b600060405180830381600087803b158015610a5e57600080fd5b505af1158015610a72573d6000803e3d6000fd5b50506040513392507f68113ca7b748f7d17637d79856900bc9336b88166e726bc9b55c62a39408b4079150610aa99089359061176c565b60405180910390a2505050505050565b61079c3334610393565b6001600160a01b03918216600090815260016020908152604080832093909416825291909152205490565b610af6610c2b565b6001600160a01b0316610b0761079e565b6001600160a01b031614610b2d5760405162461bcd60e51b81526004016105089061151b565b6001600160a01b038116610b535760405162461bcd60e51b8152600401610508906112d2565b610b5c81610f9b565b50565b6001600160a01b038216610b855760405162461bcd60e51b8152600401610508906116b2565b610b9160008383610efa565b8060026000828254610ba391906117a8565b90915550506001600160a01b03821660009081526020819052604081208054839290610bd09084906117a8565b90915550506040516001600160a01b038316906000907fddf252ad1be2c89b69c2b068fc378daa952ba7f163c4a11628f55a4df523b3ef90610c1390859061176c565b60405180910390a3610c2760008383610efa565b5050565b3390565b6001600160a01b038316610c555760405162461bcd60e51b8152600401610508906115d6565b6001600160a01b038216610c7b5760405162461bcd60e51b815260040161050890611318565b6001600160a01b0380841660008181526001602090815260408083209487168084529490915290819020849055517f8c5be1e5ebec7d5bd14f71427d1e84f3dd0314c0f7b2291e5b200ac8c7c3b92590610cd690859061176c565b60405180910390a3505050565b6001600160a01b038316610d095760405162461bcd60e51b815260040161050890611591565b6001600160a01b038216610d2f5760405162461bcd60e51b815260040161050890611208565b610d3a838383610efa565b6001600160a01b03831660009081526020819052604090205481811015610d735760405162461bcd60e51b8152600401610508906113ab565b6001600160a01b03808516600090815260208190526040808220858503905591851681529081208054849290610daa9084906117a8565b92505081905550826001600160a01b0316846001600160a01b03167fddf252ad1be2c89b69c2b068fc378daa952ba7f163c4a11628f55a4df523b3ef84604051610df4919061176c565b60405180910390a3610e07848484610efa565b50505050565b6001600160a01b038216610e335760405162461bcd60e51b815260040161050890611550565b610e3f82600083610efa565b6001600160a01b03821660009081526020819052604090205481811015610e785760405162461bcd60e51b81526004016105089061124b565b6001600160a01b0383166000908152602081905260408120838303905560028054849290610ea79084906117ff565b90915550506040516000906001600160a01b038516907fddf252ad1be2c89b69c2b068fc378daa952ba7f163c4a11628f55a4df523b3ef90610eea90869061176c565b60405180910390a3610efa836000845b505050565b80471015610f1f5760405162461bcd60e51b81526004016105089061144e565b6000826001600160a01b031682604051610f3890611164565b60006040518083038185875af1925050503d8060008114610f75576040519150601f19603f3d011682016040523d82523d6000602084013e610f7a565b606091505b5050905080610efa5760405162461bcd60e51b8152600401610508906113f1565b600580546001600160a01b038381166001600160a01b0319831681179093556040519116919082907f8be0079c531659141344cd1fd0a4f28419497f9722a3daafe3b4186f6b6457e090600090a35050565b6000610ff982846117e0565b9392505050565b6000610ff982846117c0565b80356001600160a01b038116811461074e57600080fd5b600060208284031215611034578081fd5b610ff98261100c565b6000806040838503121561104f578081fd5b6110588361100c565b91506110666020840161100c565b90509250929050565b600080600060608486031215611083578081fd5b61108c8461100c565b925061109a6020850161100c565b9150604084013590509250925092565b600080604083850312156110bc578182fd5b6110c58361100c565b946020939093013593505050565b6000602082840312156110e4578081fd5b81518015158114610ff9578182fd5b60008060008084860361014081121561110a578182fd5b60e0811215611117578182fd5b5084935060e085013560ff8116811461112e578182fd5b939693955050505061010082013591610120013590565b600060208284031215611156578081fd5b5035919050565b60ff169052565b90565b6001600160a01b0391909116815260200190565b901515815260200190565b6000602080835283518082850152825b818110156111b257858101830151858201604001528201611196565b818111156111c35783604083870101525b50601f01601f1916929092016040019392505050565b60208082526015908201527420bab1ba34b7b7101d103737ba1031b932b0ba37b960591b604082015260600190565b60208082526023908201527f45524332303a207472616e7366657220746f20746865207a65726f206164647260408201526265737360e81b606082015260800190565b60208082526022908201527f45524332303a206275726e20616d6f756e7420657863656564732062616c616e604082015261636560f01b606082015260800190565b60208082526025908201527f41756374696f6e203a2063616e206e6f7420627579206d6f7265207468616e2060408201526473746f636b60d81b606082015260800190565b60208082526026908201527f4f776e61626c653a206e6577206f776e657220697320746865207a65726f206160408201526564647265737360d01b606082015260800190565b60208082526022908201527f45524332303a20617070726f766520746f20746865207a65726f206164647265604082015261737360f01b606082015260800190565b60208082526031908201527f41756374696f6e203a20796f752063616e206e6f74207769746864726177206d6040820152706f7265207468616e20796f75206861766560781b606082015260800190565b60208082526026908201527f45524332303a207472616e7366657220616d6f756e7420657863656564732062604082015265616c616e636560d01b606082015260800190565b6020808252603a908201527f416464726573733a20756e61626c6520746f2073656e642076616c75652c207260408201527f6563697069656e74206d61792068617665207265766572746564000000000000606082015260800190565b6020808252601d908201527f416464726573733a20696e73756666696369656e742062616c616e6365000000604082015260600190565b6020808252602e908201527f41756374696f6e203a2062696464657220646964206e6f74207369676e20746860408201526d34b9903a3930b739b0b1ba34b7b760911b606082015260800190565b60208082526028908201527f45524332303a207472616e7366657220616d6f756e74206578636565647320616040820152676c6c6f77616e636560c01b606082015260800190565b6020808252818101527f4f776e61626c653a2063616c6c6572206973206e6f7420746865206f776e6572604082015260600190565b60208082526021908201527f45524332303a206275726e2066726f6d20746865207a65726f206164647265736040820152607360f81b606082015260800190565b60208082526025908201527f45524332303a207472616e736665722066726f6d20746865207a65726f206164604082015264647265737360d81b606082015260800190565b60208082526024908201527f45524332303a20617070726f76652066726f6d20746865207a65726f206164646040820152637265737360e01b606082015260800190565b60208082526033908201527f41756374696f6e203a207061796d656e74206d75737420626520686967686572604082015272207468616e206d696e696d756d20707269636560681b606082015260800190565b60208082526025908201527f45524332303a2064656372656173656420616c6c6f77616e63652062656c6f77604082015264207a65726f60d81b606082015260800190565b6020808252601f908201527f45524332303a206d696e7420746f20746865207a65726f206164647265737300604082015260600190565b8435815261014081016116fe6020870161100c565b6001600160a01b03818116602085015260408881013590850152606080890135908501528061172f60808a0161100c565b166080850152505060a086013560a083015260c086013560c083015261175860e083018661115d565b610100820193909352610120015292915050565b90815260200190565b9384526001600160a01b03928316602085015291166040830152606082015260800190565b60ff91909116815260200190565b600082198211156117bb576117bb611851565b500190565b6000826117db57634e487b7160e01b81526012600452602481fd5b500490565b60008160001904831182151516156117fa576117fa611851565b500290565b60008282101561181157611811611851565b500390565b60028104600182168061182a57607f821691505b6020821081141561184b57634e487b7160e01b600052602260045260246000fd5b50919050565b634e487b7160e01b600052601160045260246000fdfea2646970667358221220f30936f9226e51f5583ace068a0383cf21ea7e80ba7a7353c2f8f2e98927d8c564736f6c63430008000033",
  "linkReferences": {},
  "deployedLinkReferences": {}
}