{
  "_format": "hh-sol-artifact-1",
  "contractName": "Place",
  "sourceName": "contracts/Place.sol",
  "abi": [
    {
      "inputs": [
        {
          "internalType": "string",
          "name": "uri",
          "type": "string"
        },
        {
          "internalType": "address",
          "name": "signatureAddress",
          "type": "address"
        }
      ],
      "stateMutability": "nonpayable",
      "type": "constructor"
    },
    {
      "anonymous": false,
      "inputs": [
        {
          "indexed": true,
          "internalType": "address",
          "name": "account",
          "type": "address"
        },
        {
          "indexed": true,
          "internalType": "address",
          "name": "operator",
          "type": "address"
        },
        {
          "indexed": false,
          "internalType": "bool",
          "name": "approved",
          "type": "bool"
        }
      ],
      "name": "ApprovalForAll",
      "type": "event"
    },
    {
      "anonymous": false,
      "inputs": [
        {
          "indexed": false,
          "internalType": "address",
          "name": "creator",
          "type": "address"
        },
        {
          "indexed": false,
          "internalType": "address",
          "name": "buyer",
          "type": "address"
        },
        {
          "indexed": false,
          "internalType": "uint256",
          "name": "id",
          "type": "uint256"
        },
        {
          "indexed": false,
          "internalType": "uint256",
          "name": "amount",
          "type": "uint256"
        }
      ],
      "name": "Bought",
      "type": "event"
    },
    {
      "anonymous": false,
      "inputs": [
        {
          "indexed": true,
          "internalType": "address",
          "name": "operator",
          "type": "address"
        },
        {
          "indexed": true,
          "internalType": "address",
          "name": "from",
          "type": "address"
        },
        {
          "indexed": true,
          "internalType": "address",
          "name": "to",
          "type": "address"
        },
        {
          "indexed": false,
          "internalType": "uint256[]",
          "name": "ids",
          "type": "uint256[]"
        },
        {
          "indexed": false,
          "internalType": "uint256[]",
          "name": "values",
          "type": "uint256[]"
        }
      ],
      "name": "TransferBatch",
      "type": "event"
    },
    {
      "anonymous": false,
      "inputs": [
        {
          "indexed": true,
          "internalType": "address",
          "name": "operator",
          "type": "address"
        },
        {
          "indexed": true,
          "internalType": "address",
          "name": "from",
          "type": "address"
        },
        {
          "indexed": true,
          "internalType": "address",
          "name": "to",
          "type": "address"
        },
        {
          "indexed": false,
          "internalType": "uint256",
          "name": "id",
          "type": "uint256"
        },
        {
          "indexed": false,
          "internalType": "uint256",
          "name": "value",
          "type": "uint256"
        }
      ],
      "name": "TransferSingle",
      "type": "event"
    },
    {
      "anonymous": false,
      "inputs": [
        {
          "indexed": false,
          "internalType": "string",
          "name": "value",
          "type": "string"
        },
        {
          "indexed": true,
          "internalType": "uint256",
          "name": "id",
          "type": "uint256"
        }
      ],
      "name": "URI",
      "type": "event"
    },
    {
      "inputs": [
        {
          "internalType": "address",
          "name": "account",
          "type": "address"
        },
        {
          "internalType": "uint256",
          "name": "id",
          "type": "uint256"
        }
      ],
      "name": "balanceOf",
      "outputs": [
        {
          "internalType": "uint256",
          "name": "",
          "type": "uint256"
        }
      ],
      "stateMutability": "view",
      "type": "function"
    },
    {
      "inputs": [
        {
          "internalType": "address[]",
          "name": "accounts",
          "type": "address[]"
        },
        {
          "internalType": "uint256[]",
          "name": "ids",
          "type": "uint256[]"
        }
      ],
      "name": "balanceOfBatch",
      "outputs": [
        {
          "internalType": "uint256[]",
          "name": "",
          "type": "uint256[]"
        }
      ],
      "stateMutability": "view",
      "type": "function"
    },
    {
      "inputs": [
        {
          "internalType": "uint256",
          "name": "tokenId",
          "type": "uint256"
        }
      ],
      "name": "creatorById",
      "outputs": [
        {
          "internalType": "address",
          "name": "",
          "type": "address"
        }
      ],
      "stateMutability": "view",
      "type": "function"
    },
    {
      "inputs": [
        {
          "internalType": "address",
          "name": "account",
          "type": "address"
        },
        {
          "internalType": "address",
          "name": "operator",
          "type": "address"
        }
      ],
      "name": "isApprovedForAll",
      "outputs": [
        {
          "internalType": "bool",
          "name": "",
          "type": "bool"
        }
      ],
      "stateMutability": "view",
      "type": "function"
    },
    {
      "inputs": [
        {
          "internalType": "address",
          "name": "buyer",
          "type": "address"
        },
        {
          "internalType": "uint256",
          "name": "amount",
          "type": "uint256"
        },
        {
          "components": [
            {
              "internalType": "uint256",
              "name": "tokenId",
              "type": "uint256"
            },
            {
              "internalType": "address",
              "name": "creator",
              "type": "address"
            },
            {
              "internalType": "uint256",
              "name": "supply",
              "type": "uint256"
            },
            {
              "internalType": "uint256",
              "name": "price",
              "type": "uint256"
            },
            {
              "internalType": "bytes",
              "name": "signature",
              "type": "bytes"
            }
          ],
          "internalType": "struct Signature.Voucher",
          "name": "voucher",
          "type": "tuple"
        }
      ],
      "name": "mintAndTransfer",
      "outputs": [],
      "stateMutability": "nonpayable",
      "type": "function"
    },
    {
      "inputs": [
        {
          "internalType": "address",
          "name": "from",
          "type": "address"
        },
        {
          "internalType": "address",
          "name": "to",
          "type": "address"
        },
        {
          "internalType": "uint256[]",
          "name": "ids",
          "type": "uint256[]"
        },
        {
          "internalType": "uint256[]",
          "name": "amounts",
          "type": "uint256[]"
        },
        {
          "internalType": "bytes",
          "name": "data",
          "type": "bytes"
        }
      ],
      "name": "safeBatchTransferFrom",
      "outputs": [],
      "stateMutability": "nonpayable",
      "type": "function"
    },
    {
      "inputs": [
        {
          "internalType": "address",
          "name": "from",
          "type": "address"
        },
        {
          "internalType": "address",
          "name": "to",
          "type": "address"
        },
        {
          "internalType": "uint256",
          "name": "id",
          "type": "uint256"
        },
        {
          "internalType": "uint256",
          "name": "amount",
          "type": "uint256"
        },
        {
          "internalType": "bytes",
          "name": "data",
          "type": "bytes"
        }
      ],
      "name": "safeTransferFrom",
      "outputs": [],
      "stateMutability": "nonpayable",
      "type": "function"
    },
    {
      "inputs": [
        {
          "internalType": "address",
          "name": "operator",
          "type": "address"
        },
        {
          "internalType": "bool",
          "name": "approved",
          "type": "bool"
        }
      ],
      "name": "setApprovalForAll",
      "outputs": [],
      "stateMutability": "nonpayable",
      "type": "function"
    },
    {
      "inputs": [],
      "name": "signature",
      "outputs": [
        {
          "internalType": "contract Signature",
          "name": "",
          "type": "address"
        }
      ],
      "stateMutability": "view",
      "type": "function"
    },
    {
      "inputs": [
        {
          "internalType": "bytes4",
          "name": "interfaceId",
          "type": "bytes4"
        }
      ],
      "name": "supportsInterface",
      "outputs": [
        {
          "internalType": "bool",
          "name": "",
          "type": "bool"
        }
      ],
      "stateMutability": "view",
      "type": "function"
    },
    {
      "inputs": [
        {
          "internalType": "uint256",
          "name": "",
          "type": "uint256"
        }
      ],
      "name": "uri",
      "outputs": [
        {
          "internalType": "string",
          "name": "",
          "type": "string"
        }
      ],
      "stateMutability": "view",
      "type": "function"
    }
  ],
  "bytecode": "0x60806040523480156200001157600080fd5b5060405162002fa238038062002fa28339818101604052810190620000379190620001e8565b8162000049816200009360201b60201c565b5080600360006101000a81548173ffffffffffffffffffffffffffffffffffffffff021916908373ffffffffffffffffffffffffffffffffffffffff160217905550505062000400565b8060029080519060200190620000ab929190620000af565b5050565b828054620000bd906200030b565b90600052602060002090601f016020900481019282620000e157600085556200012d565b82601f10620000fc57805160ff19168380011785556200012d565b828001600101855582156200012d579182015b828111156200012c5782518255916020019190600101906200010f565b5b5090506200013c919062000140565b5090565b5b808211156200015b57600081600090555060010162000141565b5090565b60006200017662000170846200026b565b62000242565b9050828152602081018484840111156200018f57600080fd5b6200019c848285620002d5565b509392505050565b600081519050620001b581620003e6565b92915050565b600082601f830112620001cd57600080fd5b8151620001df8482602086016200015f565b91505092915050565b60008060408385031215620001fc57600080fd5b600083015167ffffffffffffffff8111156200021757600080fd5b6200022585828601620001bb565b92505060206200023885828601620001a4565b9150509250929050565b60006200024e62000261565b90506200025c828262000341565b919050565b6000604051905090565b600067ffffffffffffffff821115620002895762000288620003a6565b5b6200029482620003d5565b9050602081019050919050565b6000620002ae82620002b5565b9050919050565b600073ffffffffffffffffffffffffffffffffffffffff82169050919050565b60005b83811015620002f5578082015181840152602081019050620002d8565b8381111562000305576000848401525b50505050565b600060028204905060018216806200032457607f821691505b602082108114156200033b576200033a62000377565b5b50919050565b6200034c82620003d5565b810181811067ffffffffffffffff821117156200036e576200036d620003a6565b5b80604052505050565b7f4e487b7100000000000000000000000000000000000000000000000000000000600052602260045260246000fd5b7f4e487b7100000000000000000000000000000000000000000000000000000000600052604160045260246000fd5b6000601f19601f8301169050919050565b620003f181620002a1565b8114620003fd57600080fd5b50565b612b9280620004106000396000f3fe608060405234801561001057600080fd5b50600436106100a85760003560e01c80634e1273f4116100715780634e1273f41461017557806351ff4847146101a5578063812a2b41146101c3578063a22cb465146101f3578063e985e9c51461020f578063f242432a1461023f576100a8565b8062fdd58e146100ad57806301ffc9a7146100dd5780630e89341c1461010d5780631d9512ae1461013d5780632eb2c2d614610159575b600080fd5b6100c760048036038101906100c29190611b88565b61025b565b6040516100d491906122f9565b60405180910390f35b6100f760048036038101906100f29190611c97565b610324565b6040516101049190612141565b60405180910390f35b61012760048036038101906101229190611ce9565b610406565b6040516101349190612177565b60405180910390f35b61015760048036038101906101529190611bc4565b61049a565b005b610173600480360381019061016e91906119fe565b610579565b005b61018f600480360381019061018a9190611c2b565b61061a565b60405161019c91906120e8565b60405180910390f35b6101ad6107cb565b6040516101ba919061215c565b60405180910390f35b6101dd60048036038101906101d89190611ce9565b6107f5565b6040516101ea9190611fc6565b60405180910390f35b61020d60048036038101906102089190611b4c565b610832565b005b610229600480360381019061022491906119c2565b6109b3565b6040516102369190612141565b60405180910390f35b61025960048036038101906102549190611abd565b610a47565b005b60008073ffffffffffffffffffffffffffffffffffffffff168373ffffffffffffffffffffffffffffffffffffffff1614156102cc576040517f08c379a00000000000000000000000000000000000000000000000000000000081526004016102c3906121d9565b60405180910390fd5b60008083815260200190815260200160002060008473ffffffffffffffffffffffffffffffffffffffff1673ffffffffffffffffffffffffffffffffffffffff16815260200190815260200160002054905092915050565b60007fd9b67a26000000000000000000000000000000000000000000000000000000007bffffffffffffffffffffffffffffffffffffffffffffffffffffffff1916827bffffffffffffffffffffffffffffffffffffffffffffffffffffffff191614806103ef57507f0e89341c000000000000000000000000000000000000000000000000000000007bffffffffffffffffffffffffffffffffffffffffffffffffffffffff1916827bffffffffffffffffffffffffffffffffffffffffffffffffffffffff1916145b806103ff57506103fe82610ae8565b5b9050919050565b6060600280546104159061258c565b80601f01602080910402602001604051908101604052809291908181526020018280546104419061258c565b801561048e5780601f106104635761010080835404028352916020019161048e565b820191906000526020600020905b81548152906001019060200180831161047157829003601f168201915b50505050509050919050565b8060200160208101906104ad9190611999565b600460008360000135815260200190815260200160002060006101000a81548173ffffffffffffffffffffffffffffffffffffffff021916908373ffffffffffffffffffffffffffffffffffffffff1602179055506105218382600001358460405180602001604052806000815250610b52565b7fbf77fd13a39d14dc0da779342c14105c38d9a5d0c60f2caa22f5fd1d5525416d8160200160208101906105559190611999565b8483600001358560405161056c9493929190612049565b60405180910390a1505050565b610581610ce8565b73ffffffffffffffffffffffffffffffffffffffff168573ffffffffffffffffffffffffffffffffffffffff1614806105c757506105c6856105c1610ce8565b6109b3565b5b610606576040517f08c379a00000000000000000000000000000000000000000000000000000000081526004016105fd90612239565b60405180910390fd5b6106138585858585610cf0565b5050505050565b60608151835114610660576040517f08c379a000000000000000000000000000000000000000000000000000000000815260040161065790612299565b60405180910390fd5b6000835167ffffffffffffffff8111156106a3577f4e487b7100000000000000000000000000000000000000000000000000000000600052604160045260246000fd5b6040519080825280602002602001820160405280156106d15781602001602082028036833780820191505090505b50905060005b84518110156107c05761076a85828151811061071c577f4e487b7100000000000000000000000000000000000000000000000000000000600052603260045260246000fd5b602002602001015185838151811061075d577f4e487b7100000000000000000000000000000000000000000000000000000000600052603260045260246000fd5b602002602001015161025b565b8282815181106107a3577f4e487b7100000000000000000000000000000000000000000000000000000000600052603260045260246000fd5b602002602001018181525050806107b9906125ef565b90506106d7565b508091505092915050565b6000600360009054906101000a900473ffffffffffffffffffffffffffffffffffffffff16905090565b60006004600083815260200190815260200160002060009054906101000a900473ffffffffffffffffffffffffffffffffffffffff169050919050565b8173ffffffffffffffffffffffffffffffffffffffff16610851610ce8565b73ffffffffffffffffffffffffffffffffffffffff1614156108a8576040517f08c379a000000000000000000000000000000000000000000000000000000000815260040161089f90612279565b60405180910390fd5b80600160006108b5610ce8565b73ffffffffffffffffffffffffffffffffffffffff1673ffffffffffffffffffffffffffffffffffffffff16815260200190815260200160002060008473ffffffffffffffffffffffffffffffffffffffff1673ffffffffffffffffffffffffffffffffffffffff16815260200190815260200160002060006101000a81548160ff0219169083151502179055508173ffffffffffffffffffffffffffffffffffffffff16610962610ce8565b73ffffffffffffffffffffffffffffffffffffffff167f17307eab39ab6107e8899845ad3d59bd9653f200f220920489ca2b5937696c31836040516109a79190612141565b60405180910390a35050565b6000600160008473ffffffffffffffffffffffffffffffffffffffff1673ffffffffffffffffffffffffffffffffffffffff16815260200190815260200160002060008373ffffffffffffffffffffffffffffffffffffffff1673ffffffffffffffffffffffffffffffffffffffff16815260200190815260200160002060009054906101000a900460ff16905092915050565b610a4f610ce8565b73ffffffffffffffffffffffffffffffffffffffff168573ffffffffffffffffffffffffffffffffffffffff161480610a955750610a9485610a8f610ce8565b6109b3565b5b610ad4576040517f08c379a0000000000000000000000000000000000000000000000000000000008152600401610acb906121f9565b60405180910390fd5b610ae18585858585611050565b5050505050565b60007f01ffc9a7000000000000000000000000000000000000000000000000000000007bffffffffffffffffffffffffffffffffffffffffffffffffffffffff1916827bffffffffffffffffffffffffffffffffffffffffffffffffffffffff1916149050919050565b600073ffffffffffffffffffffffffffffffffffffffff168473ffffffffffffffffffffffffffffffffffffffff161415610bc2576040517f08c379a0000000000000000000000000000000000000000000000000000000008152600401610bb9906122d9565b60405180910390fd5b6000610bcc610ce8565b9050610bed81600087610bde886112d2565b610be7886112d2565b87611398565b8260008086815260200190815260200160002060008773ffffffffffffffffffffffffffffffffffffffff1673ffffffffffffffffffffffffffffffffffffffff1681526020019081526020016000206000828254610c4c919061245c565b925050819055508473ffffffffffffffffffffffffffffffffffffffff16600073ffffffffffffffffffffffffffffffffffffffff168273ffffffffffffffffffffffffffffffffffffffff167fc3d58168c5ae7397731d063d5bbf3d657854427343f4c083240f7aacaa2d0f628787604051610cca929190612314565b60405180910390a4610ce1816000878787876113a0565b5050505050565b600033905090565b8151835114610d34576040517f08c379a0000000000000000000000000000000000000000000000000000000008152600401610d2b906122b9565b60405180910390fd5b600073ffffffffffffffffffffffffffffffffffffffff168473ffffffffffffffffffffffffffffffffffffffff161415610da4576040517f08c379a0000000000000000000000000000000000000000000000000000000008152600401610d9b90612219565b60405180910390fd5b6000610dae610ce8565b9050610dbe818787878787611398565b60005b8451811015610fbb576000858281518110610e05577f4e487b7100000000000000000000000000000000000000000000000000000000600052603260045260246000fd5b602002602001015190506000858381518110610e4a577f4e487b7100000000000000000000000000000000000000000000000000000000600052603260045260246000fd5b60200260200101519050600080600084815260200190815260200160002060008b73ffffffffffffffffffffffffffffffffffffffff1673ffffffffffffffffffffffffffffffffffffffff16815260200190815260200160002054905081811015610eeb576040517f08c379a0000000000000000000000000000000000000000000000000000000008152600401610ee290612259565b60405180910390fd5b81810360008085815260200190815260200160002060008c73ffffffffffffffffffffffffffffffffffffffff1673ffffffffffffffffffffffffffffffffffffffff168152602001908152602001600020819055508160008085815260200190815260200160002060008b73ffffffffffffffffffffffffffffffffffffffff1673ffffffffffffffffffffffffffffffffffffffff1681526020019081526020016000206000828254610fa0919061245c565b9250508190555050505080610fb4906125ef565b9050610dc1565b508473ffffffffffffffffffffffffffffffffffffffff168673ffffffffffffffffffffffffffffffffffffffff168273ffffffffffffffffffffffffffffffffffffffff167f4a39dc06d4c0dbc64b70af90fd698a233a518aa5d07e595d983b8c0526c8f7fb878760405161103292919061210a565b60405180910390a4611048818787878787611587565b505050505050565b600073ffffffffffffffffffffffffffffffffffffffff168473ffffffffffffffffffffffffffffffffffffffff1614156110c0576040517f08c379a00000000000000000000000000000000000000000000000000000000081526004016110b790612219565b60405180910390fd5b60006110ca610ce8565b90506110ea8187876110db886112d2565b6110e4886112d2565b87611398565b600080600086815260200190815260200160002060008873ffffffffffffffffffffffffffffffffffffffff1673ffffffffffffffffffffffffffffffffffffffff16815260200190815260200160002054905083811015611181576040517f08c379a000000000000000000000000000000000000000000000000000000000815260040161117890612259565b60405180910390fd5b83810360008087815260200190815260200160002060008973ffffffffffffffffffffffffffffffffffffffff1673ffffffffffffffffffffffffffffffffffffffff168152602001908152602001600020819055508360008087815260200190815260200160002060008873ffffffffffffffffffffffffffffffffffffffff1673ffffffffffffffffffffffffffffffffffffffff1681526020019081526020016000206000828254611236919061245c565b925050819055508573ffffffffffffffffffffffffffffffffffffffff168773ffffffffffffffffffffffffffffffffffffffff168373ffffffffffffffffffffffffffffffffffffffff167fc3d58168c5ae7397731d063d5bbf3d657854427343f4c083240f7aacaa2d0f6288886040516112b3929190612314565b60405180910390a46112c98288888888886113a0565b50505050505050565b60606000600167ffffffffffffffff811115611317577f4e487b7100000000000000000000000000000000000000000000000000000000600052604160045260246000fd5b6040519080825280602002602001820160405280156113455781602001602082028036833780820191505090505b5090508281600081518110611383577f4e487b7100000000000000000000000000000000000000000000000000000000600052603260045260246000fd5b60200260200101818152505080915050919050565b505050505050565b6113bf8473ffffffffffffffffffffffffffffffffffffffff1661176e565b1561157f578373ffffffffffffffffffffffffffffffffffffffff1663f23a6e6187878686866040518663ffffffff1660e01b815260040161140595949392919061208e565b602060405180830381600087803b15801561141f57600080fd5b505af192505050801561145057506040513d601f19601f8201168201806040525081019061144d9190611cc0565b60015b6114f65761145c6126c5565b806308c379a014156114b95750611471612a6a565b8061147c57506114bb565b806040517f08c379a00000000000000000000000000000000000000000000000000000000081526004016114b09190612177565b60405180910390fd5b505b6040517f08c379a00000000000000000000000000000000000000000000000000000000081526004016114ed90612199565b60405180910390fd5b63f23a6e6160e01b7bffffffffffffffffffffffffffffffffffffffffffffffffffffffff1916817bffffffffffffffffffffffffffffffffffffffffffffffffffffffff19161461157d576040517f08c379a0000000000000000000000000000000000000000000000000000000008152600401611574906121b9565b60405180910390fd5b505b505050505050565b6115a68473ffffffffffffffffffffffffffffffffffffffff1661176e565b15611766578373ffffffffffffffffffffffffffffffffffffffff1663bc197c8187878686866040518663ffffffff1660e01b81526004016115ec959493929190611fe1565b602060405180830381600087803b15801561160657600080fd5b505af192505050801561163757506040513d601f19601f820116820180604052508101906116349190611cc0565b60015b6116dd576116436126c5565b806308c379a014156116a05750611658612a6a565b8061166357506116a2565b806040517f08c379a00000000000000000000000000000000000000000000000000000000081526004016116979190612177565b60405180910390fd5b505b6040517f08c379a00000000000000000000000000000000000000000000000000000000081526004016116d490612199565b60405180910390fd5b63bc197c8160e01b7bffffffffffffffffffffffffffffffffffffffffffffffffffffffff1916817bffffffffffffffffffffffffffffffffffffffffffffffffffffffff191614611764576040517f08c379a000000000000000000000000000000000000000000000000000000000815260040161175b906121b9565b60405180910390fd5b505b505050505050565b600080823b905060008111915050919050565b600061179461178f84612362565b61233d565b905080838252602082019050828560208602820111156117b357600080fd5b60005b858110156117e357816117c98882611897565b8452602084019350602083019250506001810190506117b6565b5050509392505050565b60006118006117fb8461238e565b61233d565b9050808382526020820190508285602086028201111561181f57600080fd5b60005b8581101561184f57816118358882611984565b845260208401935060208301925050600181019050611822565b5050509392505050565b600061186c611867846123ba565b61233d565b90508281526020810184848401111561188457600080fd5b61188f84828561254a565b509392505050565b6000813590506118a681612b00565b92915050565b600082601f8301126118bd57600080fd5b81356118cd848260208601611781565b91505092915050565b600082601f8301126118e757600080fd5b81356118f78482602086016117ed565b91505092915050565b60008135905061190f81612b17565b92915050565b60008135905061192481612b2e565b92915050565b60008151905061193981612b2e565b92915050565b600082601f83011261195057600080fd5b8135611960848260208601611859565b91505092915050565b600060a0828403121561197b57600080fd5b81905092915050565b60008135905061199381612b45565b92915050565b6000602082840312156119ab57600080fd5b60006119b984828501611897565b91505092915050565b600080604083850312156119d557600080fd5b60006119e385828601611897565b92505060206119f485828601611897565b9150509250929050565b600080600080600060a08688031215611a1657600080fd5b6000611a2488828901611897565b9550506020611a3588828901611897565b945050604086013567ffffffffffffffff811115611a5257600080fd5b611a5e888289016118d6565b935050606086013567ffffffffffffffff811115611a7b57600080fd5b611a87888289016118d6565b925050608086013567ffffffffffffffff811115611aa457600080fd5b611ab08882890161193f565b9150509295509295909350565b600080600080600060a08688031215611ad557600080fd5b6000611ae388828901611897565b9550506020611af488828901611897565b9450506040611b0588828901611984565b9350506060611b1688828901611984565b925050608086013567ffffffffffffffff811115611b3357600080fd5b611b3f8882890161193f565b9150509295509295909350565b60008060408385031215611b5f57600080fd5b6000611b6d85828601611897565b9250506020611b7e85828601611900565b9150509250929050565b60008060408385031215611b9b57600080fd5b6000611ba985828601611897565b9250506020611bba85828601611984565b9150509250929050565b600080600060608486031215611bd957600080fd5b6000611be786828701611897565b9350506020611bf886828701611984565b925050604084013567ffffffffffffffff811115611c1557600080fd5b611c2186828701611969565b9150509250925092565b60008060408385031215611c3e57600080fd5b600083013567ffffffffffffffff811115611c5857600080fd5b611c64858286016118ac565b925050602083013567ffffffffffffffff811115611c8157600080fd5b611c8d858286016118d6565b9150509250929050565b600060208284031215611ca957600080fd5b6000611cb784828501611915565b91505092915050565b600060208284031215611cd257600080fd5b6000611ce08482850161192a565b91505092915050565b600060208284031215611cfb57600080fd5b6000611d0984828501611984565b91505092915050565b6000611d1e8383611fa8565b60208301905092915050565b611d33816124b2565b82525050565b6000611d44826123fb565b611d4e8185612429565b9350611d59836123eb565b8060005b83811015611d8a578151611d718882611d12565b9750611d7c8361241c565b925050600181019050611d5d565b5085935050505092915050565b611da0816124c4565b82525050565b6000611db182612406565b611dbb818561243a565b9350611dcb818560208601612559565b611dd4816126e7565b840191505092915050565b611de881612526565b82525050565b6000611df982612411565b611e03818561244b565b9350611e13818560208601612559565b611e1c816126e7565b840191505092915050565b6000611e3460348361244b565b9150611e3f82612705565b604082019050919050565b6000611e5760288361244b565b9150611e6282612754565b604082019050919050565b6000611e7a602b8361244b565b9150611e85826127a3565b604082019050919050565b6000611e9d60298361244b565b9150611ea8826127f2565b604082019050919050565b6000611ec060258361244b565b9150611ecb82612841565b604082019050919050565b6000611ee360328361244b565b9150611eee82612890565b604082019050919050565b6000611f06602a8361244b565b9150611f11826128df565b604082019050919050565b6000611f2960298361244b565b9150611f348261292e565b604082019050919050565b6000611f4c60298361244b565b9150611f578261297d565b604082019050919050565b6000611f6f60288361244b565b9150611f7a826129cc565b604082019050919050565b6000611f9260218361244b565b9150611f9d82612a1b565b604082019050919050565b611fb18161251c565b82525050565b611fc08161251c565b82525050565b6000602082019050611fdb6000830184611d2a565b92915050565b600060a082019050611ff66000830188611d2a565b6120036020830187611d2a565b81810360408301526120158186611d39565b905081810360608301526120298185611d39565b9050818103608083015261203d8184611da6565b90509695505050505050565b600060808201905061205e6000830187611d2a565b61206b6020830186611d2a565b6120786040830185611fb7565b6120856060830184611fb7565b95945050505050565b600060a0820190506120a36000830188611d2a565b6120b06020830187611d2a565b6120bd6040830186611fb7565b6120ca6060830185611fb7565b81810360808301526120dc8184611da6565b90509695505050505050565b600060208201905081810360008301526121028184611d39565b905092915050565b600060408201905081810360008301526121248185611d39565b905081810360208301526121388184611d39565b90509392505050565b60006020820190506121566000830184611d97565b92915050565b60006020820190506121716000830184611ddf565b92915050565b600060208201905081810360008301526121918184611dee565b905092915050565b600060208201905081810360008301526121b281611e27565b9050919050565b600060208201905081810360008301526121d281611e4a565b9050919050565b600060208201905081810360008301526121f281611e6d565b9050919050565b6000602082019050818103600083015261221281611e90565b9050919050565b6000602082019050818103600083015261223281611eb3565b9050919050565b6000602082019050818103600083015261225281611ed6565b9050919050565b6000602082019050818103600083015261227281611ef9565b9050919050565b6000602082019050818103600083015261229281611f1c565b9050919050565b600060208201905081810360008301526122b281611f3f565b9050919050565b600060208201905081810360008301526122d281611f62565b9050919050565b600060208201905081810360008301526122f281611f85565b9050919050565b600060208201905061230e6000830184611fb7565b92915050565b60006040820190506123296000830185611fb7565b6123366020830184611fb7565b9392505050565b6000612347612358565b905061235382826125be565b919050565b6000604051905090565b600067ffffffffffffffff82111561237d5761237c612696565b5b602082029050602081019050919050565b600067ffffffffffffffff8211156123a9576123a8612696565b5b602082029050602081019050919050565b600067ffffffffffffffff8211156123d5576123d4612696565b5b6123de826126e7565b9050602081019050919050565b6000819050602082019050919050565b600081519050919050565b600081519050919050565b600081519050919050565b6000602082019050919050565b600082825260208201905092915050565b600082825260208201905092915050565b600082825260208201905092915050565b60006124678261251c565b91506124728361251c565b9250827fffffffffffffffffffffffffffffffffffffffffffffffffffffffffffffffff038211156124a7576124a6612638565b5b828201905092915050565b60006124bd826124fc565b9050919050565b60008115159050919050565b60007fffffffff0000000000000000000000000000000000000000000000000000000082169050919050565b600073ffffffffffffffffffffffffffffffffffffffff82169050919050565b6000819050919050565b600061253182612538565b9050919050565b6000612543826124fc565b9050919050565b82818337600083830152505050565b60005b8381101561257757808201518184015260208101905061255c565b83811115612586576000848401525b50505050565b600060028204905060018216806125a457607f821691505b602082108114156125b8576125b7612667565b5b50919050565b6125c7826126e7565b810181811067ffffffffffffffff821117156125e6576125e5612696565b5b80604052505050565b60006125fa8261251c565b91507fffffffffffffffffffffffffffffffffffffffffffffffffffffffffffffffff82141561262d5761262c612638565b5b600182019050919050565b7f4e487b7100000000000000000000000000000000000000000000000000000000600052601160045260246000fd5b7f4e487b7100000000000000000000000000000000000000000000000000000000600052602260045260246000fd5b7f4e487b7100000000000000000000000000000000000000000000000000000000600052604160045260246000fd5b600060033d11156126e45760046000803e6126e16000516126f8565b90505b90565b6000601f19601f8301169050919050565b60008160e01c9050919050565b7f455243313135353a207472616e7366657220746f206e6f6e204552433131353560008201527f526563656976657220696d706c656d656e746572000000000000000000000000602082015250565b7f455243313135353a204552433131353552656365697665722072656a6563746560008201527f6420746f6b656e73000000000000000000000000000000000000000000000000602082015250565b7f455243313135353a2062616c616e636520717565727920666f7220746865207a60008201527f65726f2061646472657373000000000000000000000000000000000000000000602082015250565b7f455243313135353a2063616c6c6572206973206e6f74206f776e6572206e6f7260008201527f20617070726f7665640000000000000000000000000000000000000000000000602082015250565b7f455243313135353a207472616e7366657220746f20746865207a65726f20616460008201527f6472657373000000000000000000000000000000000000000000000000000000602082015250565b7f455243313135353a207472616e736665722063616c6c6572206973206e6f742060008201527f6f776e6572206e6f7220617070726f7665640000000000000000000000000000602082015250565b7f455243313135353a20696e73756666696369656e742062616c616e636520666f60008201527f72207472616e7366657200000000000000000000000000000000000000000000602082015250565b7f455243313135353a2073657474696e6720617070726f76616c2073746174757360008201527f20666f722073656c660000000000000000000000000000000000000000000000602082015250565b7f455243313135353a206163636f756e747320616e6420696473206c656e67746860008201527f206d69736d617463680000000000000000000000000000000000000000000000602082015250565b7f455243313135353a2069647320616e6420616d6f756e7473206c656e6774682060008201527f6d69736d61746368000000000000000000000000000000000000000000000000602082015250565b7f455243313135353a206d696e7420746f20746865207a65726f2061646472657360008201527f7300000000000000000000000000000000000000000000000000000000000000602082015250565b600060443d1015612a7a57612afd565b612a82612358565b60043d036004823e80513d602482011167ffffffffffffffff82111715612aaa575050612afd565b808201805167ffffffffffffffff811115612ac85750505050612afd565b80602083010160043d038501811115612ae5575050505050612afd565b612af4826020018501866125be565b82955050505050505b90565b612b09816124b2565b8114612b1457600080fd5b50565b612b20816124c4565b8114612b2b57600080fd5b50565b612b37816124d0565b8114612b4257600080fd5b50565b612b4e8161251c565b8114612b5957600080fd5b5056fea2646970667358221220fca4b2305a78c900af97d00a34d0e766269b6eb0128fa0e44e719f52366cbdf464736f6c63430008040033",
  "linkReferences": {},
  "deployedLinkReferences": {}
}