{
  "_format": "hh-sol-artifact-1",
  "contractName": "Place",
  "sourceName": "contracts/Place.sol",
  "abi": [
    {
      "inputs": [
        {
          "internalType": "string",
          "name": "uri",
          "type": "string"
        }
      ],
      "stateMutability": "nonpayable",
      "type": "constructor"
    },
    {
      "anonymous": false,
      "inputs": [
        {
          "indexed": true,
          "internalType": "address",
          "name": "account",
          "type": "address"
        },
        {
          "indexed": true,
          "internalType": "address",
          "name": "operator",
          "type": "address"
        },
        {
          "indexed": false,
          "internalType": "bool",
          "name": "approved",
          "type": "bool"
        }
      ],
      "name": "ApprovalForAll",
      "type": "event"
    },
    {
      "anonymous": false,
      "inputs": [
        {
          "indexed": false,
          "internalType": "address",
          "name": "creator",
          "type": "address"
        },
        {
          "indexed": false,
          "internalType": "address",
          "name": "buyer",
          "type": "address"
        },
        {
          "indexed": false,
          "internalType": "uint256",
          "name": "id",
          "type": "uint256"
        },
        {
          "indexed": false,
          "internalType": "uint256",
          "name": "amount",
          "type": "uint256"
        }
      ],
      "name": "Bought",
      "type": "event"
    },
    {
      "anonymous": false,
      "inputs": [
        {
          "indexed": true,
          "internalType": "address",
          "name": "operator",
          "type": "address"
        },
        {
          "indexed": true,
          "internalType": "address",
          "name": "from",
          "type": "address"
        },
        {
          "indexed": true,
          "internalType": "address",
          "name": "to",
          "type": "address"
        },
        {
          "indexed": false,
          "internalType": "uint256[]",
          "name": "ids",
          "type": "uint256[]"
        },
        {
          "indexed": false,
          "internalType": "uint256[]",
          "name": "values",
          "type": "uint256[]"
        }
      ],
      "name": "TransferBatch",
      "type": "event"
    },
    {
      "anonymous": false,
      "inputs": [
        {
          "indexed": true,
          "internalType": "address",
          "name": "operator",
          "type": "address"
        },
        {
          "indexed": true,
          "internalType": "address",
          "name": "from",
          "type": "address"
        },
        {
          "indexed": true,
          "internalType": "address",
          "name": "to",
          "type": "address"
        },
        {
          "indexed": false,
          "internalType": "uint256",
          "name": "id",
          "type": "uint256"
        },
        {
          "indexed": false,
          "internalType": "uint256",
          "name": "value",
          "type": "uint256"
        }
      ],
      "name": "TransferSingle",
      "type": "event"
    },
    {
      "anonymous": false,
      "inputs": [
        {
          "indexed": false,
          "internalType": "string",
          "name": "value",
          "type": "string"
        },
        {
          "indexed": true,
          "internalType": "uint256",
          "name": "id",
          "type": "uint256"
        }
      ],
      "name": "URI",
      "type": "event"
    },
    {
      "inputs": [
        {
          "internalType": "address",
          "name": "account",
          "type": "address"
        },
        {
          "internalType": "uint256",
          "name": "id",
          "type": "uint256"
        }
      ],
      "name": "balanceOf",
      "outputs": [
        {
          "internalType": "uint256",
          "name": "",
          "type": "uint256"
        }
      ],
      "stateMutability": "view",
      "type": "function"
    },
    {
      "inputs": [
        {
          "internalType": "address[]",
          "name": "accounts",
          "type": "address[]"
        },
        {
          "internalType": "uint256[]",
          "name": "ids",
          "type": "uint256[]"
        }
      ],
      "name": "balanceOfBatch",
      "outputs": [
        {
          "internalType": "uint256[]",
          "name": "",
          "type": "uint256[]"
        }
      ],
      "stateMutability": "view",
      "type": "function"
    },
    {
      "inputs": [
        {
          "internalType": "uint256",
          "name": "tokenId",
          "type": "uint256"
        }
      ],
      "name": "creatorById",
      "outputs": [
        {
          "internalType": "address",
          "name": "",
          "type": "address"
        }
      ],
      "stateMutability": "view",
      "type": "function"
    },
    {
      "inputs": [
        {
          "internalType": "address",
          "name": "account",
          "type": "address"
        },
        {
          "internalType": "address",
          "name": "operator",
          "type": "address"
        }
      ],
      "name": "isApprovedForAll",
      "outputs": [
        {
          "internalType": "bool",
          "name": "",
          "type": "bool"
        }
      ],
      "stateMutability": "view",
      "type": "function"
    },
    {
      "inputs": [
        {
          "internalType": "uint256",
          "name": "tokenId",
          "type": "uint256"
        },
        {
          "internalType": "address",
          "name": "creator",
          "type": "address"
        },
        {
          "internalType": "address",
          "name": "buyer",
          "type": "address"
        },
        {
          "internalType": "uint256",
          "name": "amount",
          "type": "uint256"
        }
      ],
      "name": "mintAndTransfer",
      "outputs": [],
      "stateMutability": "nonpayable",
      "type": "function"
    },
    {
      "inputs": [
        {
          "internalType": "address",
          "name": "from",
          "type": "address"
        },
        {
          "internalType": "address",
          "name": "to",
          "type": "address"
        },
        {
          "internalType": "uint256[]",
          "name": "ids",
          "type": "uint256[]"
        },
        {
          "internalType": "uint256[]",
          "name": "amounts",
          "type": "uint256[]"
        },
        {
          "internalType": "bytes",
          "name": "data",
          "type": "bytes"
        }
      ],
      "name": "safeBatchTransferFrom",
      "outputs": [],
      "stateMutability": "nonpayable",
      "type": "function"
    },
    {
      "inputs": [
        {
          "internalType": "address",
          "name": "from",
          "type": "address"
        },
        {
          "internalType": "address",
          "name": "to",
          "type": "address"
        },
        {
          "internalType": "uint256",
          "name": "id",
          "type": "uint256"
        },
        {
          "internalType": "uint256",
          "name": "amount",
          "type": "uint256"
        },
        {
          "internalType": "bytes",
          "name": "data",
          "type": "bytes"
        }
      ],
      "name": "safeTransferFrom",
      "outputs": [],
      "stateMutability": "nonpayable",
      "type": "function"
    },
    {
      "inputs": [
        {
          "internalType": "address",
          "name": "operator",
          "type": "address"
        },
        {
          "internalType": "bool",
          "name": "approved",
          "type": "bool"
        }
      ],
      "name": "setApprovalForAll",
      "outputs": [],
      "stateMutability": "nonpayable",
      "type": "function"
    },
    {
      "inputs": [
        {
          "internalType": "bytes4",
          "name": "interfaceId",
          "type": "bytes4"
        }
      ],
      "name": "supportsInterface",
      "outputs": [
        {
          "internalType": "bool",
          "name": "",
          "type": "bool"
        }
      ],
      "stateMutability": "view",
      "type": "function"
    },
    {
      "inputs": [
        {
          "internalType": "uint256",
          "name": "",
          "type": "uint256"
        }
      ],
      "name": "uri",
      "outputs": [
        {
          "internalType": "string",
          "name": "",
          "type": "string"
        }
      ],
      "stateMutability": "view",
      "type": "function"
    }
  ],
  "bytecode": "0x60806040523480156200001157600080fd5b50604051620019a7380380620019a7833981016040819052620000349162000107565b80620000408162000048565b505062000229565b80516200005d90600290602084019062000061565b5050565b8280546200006f90620001d6565b90600052602060002090601f016020900481019282620000935760008555620000de565b82601f10620000ae57805160ff1916838001178555620000de565b82800160010185558215620000de579182015b82811115620000de578251825591602001919060010190620000c1565b50620000ec929150620000f0565b5090565b5b80821115620000ec5760008155600101620000f1565b600060208083850312156200011a578182fd5b82516001600160401b038082111562000131578384fd5b818501915085601f83011262000145578384fd5b8151818111156200015a576200015a62000213565b604051601f8201601f191681018501838111828210171562000180576200018062000213565b604052818152838201850188101562000197578586fd5b8592505b81831015620001ba57838301850151818401860152918401916200019b565b81831115620001cb57858583830101525b979650505050505050565b600281046001821680620001eb57607f821691505b602082108114156200020d57634e487b7160e01b600052602260045260246000fd5b50919050565b634e487b7160e01b600052604160045260246000fd5b61176e80620002396000396000f3fe608060405234801561001057600080fd5b506004361061009d5760003560e01c8063812a2b4111610066578063812a2b4114610140578063965a675914610160578063a22cb46514610173578063e985e9c514610186578063f242432a146101995761009d565b8062fdd58e146100a257806301ffc9a7146100cb5780630e89341c146100eb5780632eb2c2d61461010b5780634e1273f414610120575b600080fd5b6100b56100b0366004610f04565b6101ac565b6040516100c29190611575565b60405180910390f35b6100de6100d9366004610feb565b610203565b6040516100c2919061122b565b6100fe6100f936600461102a565b61024b565b6040516100c29190611236565b61011e610119366004610dc1565b6102df565b005b61013361012e366004610f2d565b61033d565b6040516100c291906111ea565b61015361014e36600461102a565b61045d565b6040516100c2919061110a565b61011e61016e366004611042565b610478565b61011e610181366004610eca565b6104fe565b6100de610194366004610d8f565b6105cc565b61011e6101a7366004610e67565b6105fa565b60006001600160a01b0383166101dd5760405162461bcd60e51b81526004016101d4906112e5565b60405180910390fd5b506000908152602081815260408083206001600160a01b03949094168352929052205490565b60006001600160e01b03198216636cdb3d1360e11b148061023457506001600160e01b031982166303a24d0760e21b145b80610243575061024382610651565b90505b919050565b60606002805461025a906115f2565b80601f0160208091040260200160405190810160405280929190818152602001828054610286906115f2565b80156102d35780601f106102a8576101008083540402835291602001916102d3565b820191906000526020600020905b8154815290600101906020018083116102b657829003601f168201915b50505050509050919050565b6102e761066a565b6001600160a01b0316856001600160a01b0316148061030d575061030d8561019461066a565b6103295760405162461bcd60e51b81526004016101d4906113be565b610336858585858561066f565b5050505050565b606081518351146103605760405162461bcd60e51b81526004016101d4906114a3565b6000835167ffffffffffffffff81111561038a57634e487b7160e01b600052604160045260246000fd5b6040519080825280602002602001820160405280156103b3578160200160208202803683370190505b50905060005b84518110156104555761041a8582815181106103e557634e487b7160e01b600052603260045260246000fd5b602002602001015185838151811061040d57634e487b7160e01b600052603260045260246000fd5b60200260200101516101ac565b82828151811061043a57634e487b7160e01b600052603260045260246000fd5b602090810291909101015261044e8161162d565b90506103b9565b509392505050565b6000908152600360205260409020546001600160a01b031690565b600084815260036020908152604080832080546001600160a01b0319166001600160a01b038816179055805191820190529081526104bb90839086908490610840565b7fbf77fd13a39d14dc0da779342c14105c38d9a5d0c60f2caa22f5fd1d5525416d838386846040516104f0949392919061117c565b60405180910390a150505050565b816001600160a01b031661051061066a565b6001600160a01b031614156105375760405162461bcd60e51b81526004016101d49061145a565b806001600061054461066a565b6001600160a01b03908116825260208083019390935260409182016000908120918716808252919093529120805460ff19169215159290921790915561058861066a565b6001600160a01b03167f17307eab39ab6107e8899845ad3d59bd9653f200f220920489ca2b5937696c31836040516105c0919061122b565b60405180910390a35050565b6001600160a01b03918216600090815260016020908152604080832093909416825291909152205460ff1690565b61060261066a565b6001600160a01b0316856001600160a01b0316148061062857506106288561019461066a565b6106445760405162461bcd60e51b81526004016101d490611330565b610336858585858561092f565b6001600160e01b031981166301ffc9a760e01b14919050565b335b90565b81518351146106905760405162461bcd60e51b81526004016101d4906114ec565b6001600160a01b0384166106b65760405162461bcd60e51b81526004016101d490611379565b60006106c061066a565b90506106d0818787878787610838565b60005b84518110156107d25760008582815181106106fe57634e487b7160e01b600052603260045260246000fd5b60200260200101519050600085838151811061072a57634e487b7160e01b600052603260045260246000fd5b602090810291909101810151600084815280835260408082206001600160a01b038e16835290935291909120549091508181101561077a5760405162461bcd60e51b81526004016101d490611410565b6000838152602081815260408083206001600160a01b038e8116855292528083208585039055908b168252812080548492906107b79084906115da565b92505081905550505050806107cb9061162d565b90506106d3565b50846001600160a01b0316866001600160a01b0316826001600160a01b03167f4a39dc06d4c0dbc64b70af90fd698a233a518aa5d07e595d983b8c0526c8f7fb87876040516108229291906111fd565b60405180910390a4610838818787878787610a63565b505050505050565b6001600160a01b0384166108665760405162461bcd60e51b81526004016101d490611534565b600061087061066a565b90506108918160008761088288610b71565b61088b88610b71565b87610838565b6000848152602081815260408083206001600160a01b0389168452909152812080548592906108c19084906115da565b92505081905550846001600160a01b031660006001600160a01b0316826001600160a01b03167fc3d58168c5ae7397731d063d5bbf3d657854427343f4c083240f7aacaa2d0f62878760405161091892919061157e565b60405180910390a461033681600087878787610bca565b6001600160a01b0384166109555760405162461bcd60e51b81526004016101d490611379565b600061095f61066a565b905061097081878761088288610b71565b6000848152602081815260408083206001600160a01b038a168452909152902054838110156109b15760405162461bcd60e51b81526004016101d490611410565b6000858152602081815260408083206001600160a01b038b81168552925280832087850390559088168252812080548692906109ee9084906115da565b92505081905550856001600160a01b0316876001600160a01b0316836001600160a01b03167fc3d58168c5ae7397731d063d5bbf3d657854427343f4c083240f7aacaa2d0f628888604051610a4492919061157e565b60405180910390a4610a5a828888888888610bca565b50505050505050565b610a75846001600160a01b0316610c9b565b156108385760405163bc197c8160e01b81526001600160a01b0385169063bc197c8190610aae908990899088908890889060040161111e565b602060405180830381600087803b158015610ac857600080fd5b505af1925050508015610af8575060408051601f3d908101601f19168201909252610af59181019061100e565b60015b610b4157610b0461167a565b80610b0f5750610b29565b8060405162461bcd60e51b81526004016101d49190611236565b60405162461bcd60e51b81526004016101d490611249565b6001600160e01b0319811663bc197c8160e01b14610a5a5760405162461bcd60e51b81526004016101d49061129d565b60408051600180825281830190925260609160009190602080830190803683370190505090508281600081518110610bb957634e487b7160e01b600052603260045260246000fd5b602090810291909101015292915050565b610bdc846001600160a01b0316610c9b565b156108385760405163f23a6e6160e01b81526001600160a01b0385169063f23a6e6190610c1590899089908890889088906004016111a5565b602060405180830381600087803b158015610c2f57600080fd5b505af1925050508015610c5f575060408051601f3d908101601f19168201909252610c5c9181019061100e565b60015b610c6b57610b0461167a565b6001600160e01b0319811663f23a6e6160e01b14610a5a5760405162461bcd60e51b81526004016101d49061129d565b3b151590565b80356001600160a01b038116811461024657600080fd5b600082601f830112610cc8578081fd5b81356020610cdd610cd8836115b6565b61158c565b8281528181019085830183850287018401881015610cf9578586fd5b855b85811015610d1757813584529284019290840190600101610cfb565b5090979650505050505050565b600082601f830112610d34578081fd5b813567ffffffffffffffff811115610d4e57610d4e61165e565b610d61601f8201601f191660200161158c565b818152846020838601011115610d75578283fd5b816020850160208301379081016020019190915292915050565b60008060408385031215610da1578182fd5b610daa83610ca1565b9150610db860208401610ca1565b90509250929050565b600080600080600060a08688031215610dd8578081fd5b610de186610ca1565b9450610def60208701610ca1565b9350604086013567ffffffffffffffff80821115610e0b578283fd5b610e1789838a01610cb8565b94506060880135915080821115610e2c578283fd5b610e3889838a01610cb8565b93506080880135915080821115610e4d578283fd5b50610e5a88828901610d24565b9150509295509295909350565b600080600080600060a08688031215610e7e578081fd5b610e8786610ca1565b9450610e9560208701610ca1565b93506040860135925060608601359150608086013567ffffffffffffffff811115610ebe578182fd5b610e5a88828901610d24565b60008060408385031215610edc578182fd5b610ee583610ca1565b915060208301358015158114610ef9578182fd5b809150509250929050565b60008060408385031215610f16578182fd5b610f1f83610ca1565b946020939093013593505050565b60008060408385031215610f3f578182fd5b823567ffffffffffffffff80821115610f56578384fd5b818501915085601f830112610f69578384fd5b81356020610f79610cd8836115b6565b82815281810190858301838502870184018b1015610f95578889fd5b8896505b84871015610fbe57610faa81610ca1565b835260019690960195918301918301610f99565b5096505086013592505080821115610fd4578283fd5b50610fe185828601610cb8565b9150509250929050565b600060208284031215610ffc578081fd5b81356110078161171f565b9392505050565b60006020828403121561101f578081fd5b81516110078161171f565b60006020828403121561103b578081fd5b5035919050565b60008060008060808587031215611057578384fd5b8435935061106760208601610ca1565b925061107560408601610ca1565b9396929550929360600135925050565b6000815180845260208085019450808401835b838110156110b457815187529582019590820190600101611098565b509495945050505050565b60008151808452815b818110156110e4576020818501810151868301820152016110c8565b818111156110f55782602083870101525b50601f01601f19169290920160200192915050565b6001600160a01b0391909116815260200190565b6001600160a01b0386811682528516602082015260a06040820181905260009061114a90830186611085565b828103606084015261115c8186611085565b9050828103608084015261117081856110bf565b98975050505050505050565b6001600160a01b0394851681529290931660208301526040820152606081019190915260800190565b6001600160a01b03868116825285166020820152604081018490526060810183905260a0608082018190526000906111df908301846110bf565b979650505050505050565b6000602082526110076020830184611085565b6000604082526112106040830185611085565b82810360208401526112228185611085565b95945050505050565b901515815260200190565b60006020825261100760208301846110bf565b60208082526034908201527f455243313135353a207472616e7366657220746f206e6f6e20455243313135356040820152732932b1b2b4bb32b91034b6b83632b6b2b73a32b960611b606082015260800190565b60208082526028908201527f455243313135353a204552433131353552656365697665722072656a656374656040820152676420746f6b656e7360c01b606082015260800190565b6020808252602b908201527f455243313135353a2062616c616e636520717565727920666f7220746865207a60408201526a65726f206164647265737360a81b606082015260800190565b60208082526029908201527f455243313135353a2063616c6c6572206973206e6f74206f776e6572206e6f7260408201526808185c1c1c9bdd995960ba1b606082015260800190565b60208082526025908201527f455243313135353a207472616e7366657220746f20746865207a65726f206164604082015264647265737360d81b606082015260800190565b60208082526032908201527f455243313135353a207472616e736665722063616c6c6572206973206e6f74206040820152711bdddb995c881b9bdc88185c1c1c9bdd995960721b606082015260800190565b6020808252602a908201527f455243313135353a20696e73756666696369656e742062616c616e636520666f60408201526939103a3930b739b332b960b11b606082015260800190565b60208082526029908201527f455243313135353a2073657474696e6720617070726f76616c20737461747573604082015268103337b91039b2b63360b91b606082015260800190565b60208082526029908201527f455243313135353a206163636f756e747320616e6420696473206c656e677468604082015268040dad2e6dac2e8c6d60bb1b606082015260800190565b60208082526028908201527f455243313135353a2069647320616e6420616d6f756e7473206c656e677468206040820152670dad2e6dac2e8c6d60c31b606082015260800190565b60208082526021908201527f455243313135353a206d696e7420746f20746865207a65726f206164647265736040820152607360f81b606082015260800190565b90815260200190565b918252602082015260400190565b60405181810167ffffffffffffffff811182821017156115ae576115ae61165e565b604052919050565b600067ffffffffffffffff8211156115d0576115d061165e565b5060209081020190565b600082198211156115ed576115ed611648565b500190565b60028104600182168061160657607f821691505b6020821081141561162757634e487b7160e01b600052602260045260246000fd5b50919050565b600060001982141561164157611641611648565b5060010190565b634e487b7160e01b600052601160045260246000fd5b634e487b7160e01b600052604160045260246000fd5b60e01c90565b600060443d101561168a5761066c565b600481823e6308c379a061169e8251611674565b146116a85761066c565b6040513d600319016004823e80513d67ffffffffffffffff81602484011181841117156116d8575050505061066c565b828401925082519150808211156116f2575050505061066c565b503d8301602082840101111561170a5750505061066c565b601f01601f1916810160200160405291505090565b6001600160e01b03198116811461173557600080fd5b5056fea2646970667358221220c1bd10b9f75d6c8e7a4d2894cf6c809f56b7d81e3a04e6ab32aa9dfdb5449c8a64736f6c63430008000033",
  "linkReferences": {},
  "deployedLinkReferences": {}
}